:020000040800F2
:10000000C00E00203D020008F12800082723000848
:10001000D5280008790B0008E93900080000000025
:10002000000000000000000000000000493300084C
:10003000930B0008000000004D320008D133000887
:10004000570200085702000857020008570200082C
:10005000570200085702000857020008570200081C
:10006000570200085702000857020008570200080C
:1000700057020008570200085702000857020008FC
:10008000570200085702000857020008000000004D
:1000900000000000000000000000000057020008FF
:1000A00057020008570200085702000857020008CC
:1000B0005702000875340008813400085702000810
:1000C00057020008570200085702000857020008AC
:1000D00057020008D139000857020008000000004C
:1000E00057020008570200085702000800000000ED
:1000F000000000000000000000000000570200089F
:1001000000000000570200085702000857020008CC
:1001100000000000000000000000000000000000DF
:10012000570200085702000857020008570200084B
:10013000570200080000000000000000000000005E
:10014000000000000000000000000000570200084E
:10015000570200085702000857020008DD3900085E
:1001600057020008570200080000000000000000CD
:10017000000000000000000000000000000000007F
:10018000000000005702000800000000000000000E
:10019000570200085702000800F002F800F03EF88D
:1001A0000AA090E8000C82448344AAF10107DA45D2
:1001B00001D100F033F8AFF2090EBAE80F0013F0E6
:1001C000010F18BFFB1A43F001031847385900000C
:1001D00058590000103A24BF78C878C1FAD852079D
:1001E00024BF30C830C144BF04680C6070470000B1
:1001F0000023002400250026103A28BF78C1FBD830
:10020000520728BF30C148BF0B60704700207047BD
:100210001FB504F02FFA1FBD10B510BD00F070FA25
:100220001146FFF7F5FF03F065FC00F08EFA03B40A
:10023000FFF7F2FF03BC00F091FA00000948804785
:1002400009480047FEE7FEE7FEE7FEE7FEE7FEE7B8
:10025000FEE7FEE7FEE7FEE704480549054A064BD0
:10026000704700006534000899010008C0080020AC
:10027000C00E0020C00A0020C00A002053EA020C71
:1002800000F069802DE9F04B4FF00006002B1FBFF6
:10029000B3FA83F503FA05F424FA05F65E4012BFBB
:1002A0001643B2FA82F502FA05F4C5F120051EBF25
:1002B00022FA05FC44EA0C04203556EA044C4FEAC5
:1002C000144418BF641C4FF000084FF0000990421E
:1002D00071EB030C39D3002919BFB1FA81F701FA88
:1002E00007F6B0FA80F700FA07F6C7F120071EBF3D
:1002F00020FA07FC46EA0C062037B6FBF4FCA7EB15
:100300000507103F07F01F0BCBF120060CFA0BFB83
:100310002CFA06F644BFB3460026202FA4BF5E4643
:100320004FF0000B5BEA060C08BF4FF0010B19EB16
:100330000B09ABFB027C48EB0608C01B06FB02CC9A
:100340000BFB03CC71EB0C01C1E70B4602464146A7
:100350004846BDE8F08B13B54FF000004FF00001A8
:10036000AFF30080BDE81C40704700000FB41CB51F
:10037000084B06AA7B4469460090059800F0DFF818
:1003800004460020694600F0EDF820461CBC5DF8EC
:1003900014FB0000ED01000030B505460B462A466F
:1003A00013F8014B12F8010B08B1A042F8D01CB1B0
:1003B000002802D06D1CF1E7284630BD40EA010359
:1003C00010B59B070FD1042A0DD310C808C9121FFE
:1003D0009C42F8D020BA19BA884201D9012010BD38
:1003E0004FF0FF3010BD1AB1D30703D0521C07E005
:1003F000002010BD10F8013B11F8014B1B1B07D169
:1004000010F8013B11F8014B1B1B01D1921EF1D1D9
:10041000184610BD40EA0103024630B59B0710D1D3
:100420004FF0013400E008C208C91D1B9D4315EAC6
:10043000C41FF8D013F0FF0102F8011B0DD01B0AF6
:10044000F8E711F8013B002B02F8013B05D011F849
:10045000013B002B02F8013BF3D130BD4FF000020D
:1004600000B5134694469646203922BFA0E80C50AA
:10047000A0E80C50B1F12001BFF4F7AF090728BF85
:10048000A0E80C5048BF0CC05DF804EB890028BF01
:1004900040F8042B08BF704748BF20F8022B11F02A
:1004A000804F18BF00F8012B704700004FF0013C4F
:1004B00050F8042B51F8043B9A4221D1A2EB0C03D3
:1004C000934313EACC1317D150F8042B51F8043B93
:1004D0009A4215D1A2EB0C03934313EACC130BD130
:1004E00050F8042B51F8043B9A4209D1A2EB0C03BB
:1004F000934313EACC13DBD04FF00000704700BFEA
:10050000D01A01BAB1FA81F101F0180122FA01F012
:10051000CB40C1F12001DBB2C0B2C01A2CFA01F30A
:10052000D11A914311EAC311E6D170477047704761
:100530007047000001694A1C02610878704700B5E5
:100540008FB0CDE901310021059105497944CDE90C
:1005500003101146684600F00BF80FB000BD000014
:10056000E5FFFFFF0A6802F8010B0A607047000010
:100570002DE9F05F894604464FF0000ADFF874B1B8
:10058000FB44C0F820A02046E1688847002874D0CA
:10059000252806D0D4E901219047206A401C20621A
:1005A000F1E700265F462046E16888472028054697
:1005B00007DB312D05D2781910F8200C08B106435D
:1005C000F1E7B00701D526F00406C4F81CA0002707
:1005D000C4F818A02A2D09D0284603F083FA38B3AE
:1005E00004EB8708303DC8F8185019E059F8041B8F
:1005F000204604EB87029161E1688847012F054698
:1006000018D1E069002820DA26F020061DE0D8F88D
:10061000180000EB800005EB40003038C8F81800E7
:100620002046E1688847054603F05CFA0028EED1D1
:10063000012F0AD02E2D08D12046E16888477F1C63
:100640000546022F46F02006C4DBA069002803DA25
:10065000404246F00106A061F00701D026F01006E6
:100660006C2D0BD0682D09D04C2D39D06A2D35D08A
:10067000742D35D07A2D33D016E038E0E1682F465E
:1006800020468847B842054609D16C2F26D04FF442
:100690008060E168064320468847054604E06C2FE9
:1006A0001AD04FF4807006430DB3A5F1410019280C
:1006B00002D8203546F400664A4629462046266080
:1006C0004E46FFF7A3FD80B101280BD0F61D26F0A2
:1006D000070000F1080956E74020E4E78020D8E74A
:1006E0000020D6E706F104094DE7284652E7206AC4
:1006F000BDE8F09F6C550000004870475C08002082
:100700007546FFF7F9FFAE4605006946534620F0EF
:100710000700854618B020B5FFF79EFDBDE82040D4
:100720004FF000064FF000074FF000084FF0000BAD
:1007300021F00701AC46ACE8C009ACE8C009ACE860
:10074000C009ACE8C0098D46704710B50446AFF348
:1007500000802046BDE81040FFF769BD0149182020
:10076000ABBEFEE726000200704700002DE9F84FFF
:100770000025DFF8E8822C464FF4FA7A2F464FF432
:10078000C87B052D7DD2DFE805F003255693C10017
:10079000761CF6B2B2A21021202002F0C9F902F0B4
:1007A000A5FA02F057FB00286BD1012002F034FBC0
:1007B0000028F9D1ADA21021202002F0B9F90823B8
:1007C000ADA22021002002F078FA02F08FFA002674
:1007D00001252CE0761CF6B2ACA21021182002F004
:1007E000A7F90823A4A22021002002F066FA02F053
:1007F0007DFA02F02FFB002872D1022002F00CFBE0
:1008000000286DD108239CA21021182002F055FA6F
:1008100096A21021202002F08BF9082396A2202115
:10082000002002F04AFA02F061FA0026022558463A
:1008300000F0BAFAA5E7102197A2084602F078F96D
:1008400008238DA22021002002F037FA02F04EFA90
:1008500002F05CFBB0B194A21021202002F068F9F4
:10086000082385A22021002002F027FA02F03EFA98
:1008700000263546504600F097FA584600F094FAA4
:1008800086E72DE008237CA21021002002F015FA53
:1008900088A21021202002F04BF9082376A2202103
:1008A000002002F00AFA02F021FA0325504615E072
:1008B000102183A2084602F03BF908236EA22021F2
:1008C000002002F0FAF902F011FA504600F06CFA3A
:1008D00002F036FB58B100254FF47A7000F064FA4C
:1008E000584600F061FA0A2EA4D1BDE8F88F78A22C
:1008F0001021002002F01CF908235FA22021002013
:1009000002F0DBF902F0F2F90425E5E775A2002117
:10091000082002F00DF9082376A20021182002F029
:10092000CCF9082374A20021382002F0C6F908236C
:1009300072A20021582002F0C0F908234EA2102113
:10094000002002F0BAF96EA21021202002F0F0F887
:1009500008236EA21021302002F0AFF908236CA208
:100960002021002002F0A9F902F0C0F94FF0080997
:10097000454621E001F00EFDC0B22870022802D0E9
:10098000042804D008E02F7034B1641E03E02F70F7
:10099000632C01D2641CE4B2082362A23021282017
:1009A00002F08BF90223224630214120CDF800903D
:1009B00002F05EF902F09AF928780328DAD12F7054
:1009C0002146022002F0D6FA40B101F093FF002543
:1009D000584600F0E9F90A2E87D0D9E601F08AFFDF
:1009E000102151A2084602F0A3F8082322A22021D8
:1009F000002002F062F902F079F940F2DC5000F0D8
:100A0000D3F901F077FF00214BA2084602F090F8DD
:100A1000102108234DA2084602F04FF94CA21021E4
:100A2000202002F085F8082338A22021102002F0AF
:100A300044F9202149A2084602F07AF808234AA284
:100A40003021102002F039F948A23021202002F094
:100A50006FF8BDE8F84F02F049B90000040000202B
:100A6000C7EBB0B4CAD6D6B800000000D6B8CEC620
:100A7000D5FDB3A30000000020202020202020204E
:100A8000202020202020202000000000C7EBD4D907
:100A9000B0B4D2BBB4CE0000B6D4B1C8C1BDB4CEE0
:100AA000D6B8CEC600000000B6D4B1C8CAA7B0DC24
:100AB00000000000B6D4B1C8B3C9B9A60000000058
:100AC000C9FAB3C9D6B8CEC6C4A3B0E500000000C9
:100AD000C9FAB3C9D6B8CEC6C4A3B0E5B3C9B9A6DE
:100AE00000000000B0B42020BCD32020B0B42020EF
:100AF000BCF500004B3400002C2000004B320000FD
:100B0000B0B42020B1A3B4E6000000004B330000D5
:100B10002020303D3C204944203C3D3939202020D4
:100B20000000000049443D00C2BCC8EBD6B8CEC6A8
:100B3000B3C9B9A600000000D6B8CEC6C4A3BFE9A9
:100B4000B2E2CAD4B3CCD0F2000000004B310000B6
:100B5000BCFCCCEDBCD3D6B8CEC60000BCFCC9BE34
:100B6000B3FDD6B8CEC600004B350000BCFCD1E9C1
:100B7000D6A4D6B8CEC60000FEE770B50C46054632
:100B800002F066FB20EA04012846BDE8704002F04E
:100B90002DBF7047F8B5002558A22946284601F018
:100BA000C7FF002108235AA2084602F086F808234E
:100BB00058A20021202002F080F857A200213820FE
:100BC00001F0B6FF082355A20021482002F075F875
:100BD000102153A2084601F0ABFF1021082354A2B4
:100BE000084602F06AF853A22021002001F0A0FF7D
:100BF000082352A22021002002F05FF8082350A20F
:100C00002021302002F059F802F070F840F2DC5751
:100C100000264E4C26E000BF01F0BCFBC0B22070A5
:100C2000022806D0042808D001283AD0052822D06E
:100C300008E0267035B16D1E03E02670632D01D2E9
:100C40006D1CADB2082342A23021282002F035F8F5
:100C50000820009002232A463021412002F008F8A3
:100C600002F044F820780328D6D10121284602F06A
:100C70008AF850B112E0267002F0B4F870B901F0B1
:100C800039FE102133A2082004E001F033FE1021C8
:100C900034A2084601F04CFF02F028F8384600F074
:100CA00083F801F027FE33A20021202001F040FF4D
:100CB0001021082321A2084601F0FFFF30A21021D5
:100CC000202001F035FF082330A22021102001F060
:100CD000F4FF20212EA2084601F02AFF082314A2C7
:100CE0003021102001F0E9FF2CA23021202001F05A
:100CF0001FFF01F0FBFF2670F8BD00002020BCD3D1
:100D0000202020BCF5202020C8B7C8CF000000005C
:100D10004B3400002C4B3200BCF500002C4B330050
:100D20002020C7E5BFD5D6B8CEC6BFE20000000080
:100D30004B3500002020B7B5BBD800004B31000078
:100D400020303D3C49443C3D39390000040000203E
:100D500049443D00C7E5BFD5D6B8CEC6BFE2B3C94A
:100D6000B9A60000C9BEB3FDD6B8CEC6B3C9B9A6F0
:100D700000000000D6B8CEC6BFAACBF80000000025
:100D8000BCFCCCEDBCD3D6B8CEC600004B330000C3
:100D9000BCFCC9BEB3FDD6B8CEC60000BCFCD1E9D0
:100DA000D6A4D6B8CEC6000070B504464FF47A7506
:100DB00002E0284600F004F8641EFAD270BD00007C
:100DC00038B54FF6FA74201AADF80000BDF80000EF
:100DD000094D29684862284600F068FD286802E04D
:100DE000416AADF80010BDF80010A142F8D3BDE88B
:100DF0003840014800F0C2BDAC05002072B6FEE7E5
:100E00002DE9F0410446876D00F050F9064694F84C
:100E100035000025022806D08020606584F8345013
:100E20000120BDE8F0812068016821F01601016011
:100E30002068416921F080014161206C08B9A06CF3
:100E400020B12068016821F0080101602068016874
:100E500021F0010101600CE000F028F9801B052859
:100E600007D920206065032084F8350084F83450C9
:100E7000D7E720680068C007EED194F85C103F20E7
:100E80008840B860012084F8350084F83450002090
:100E9000C7E790F83510022903D080214165012071
:100EA0007047052180F835100068016821F00101C4
:100EB00001600020704700002DE9F84FDFF8B8A16D
:100EC0000022012403254FF00F090AF1040BAAF1B7
:100ED000040E00BF0B6804FA02F63340B34273D12C
:100EE0000F7907F00307012F01D0022F16D1876871
:100EF0004FEA420805FA08FC27EA0C07D1F80CC0B3
:100F00000CFA08FC4CEA070CC0F808C04768B74365
:100F10000E79C6F3001696403E4346600E79F643BE
:100F2000B6070DD0C768560005FA06FC27EA0C077D
:100F3000D1F808C00CFA06FC4CEA070CC0F80CC04B
:100F40000E7906F00306022E10D1D60800EB8608B3
:100F5000D8F8206057074FEAD76C09FA0CF7BE4360
:100F60000F6907FA0CF73743C8F8207006684FEA94
:100F7000420C05FA0CF7BE430F7907F0030707FA96
:100F80000CF7374307604E6816F4403F6DD03B4E78
:100F9000376847F480473760366822F0030706F465
:100FA00080460096364E07EB060CDCF8086897077B
:100FB0003F0F09FA07F826EA0806DFF8C88040451F
:100FC00003D14FF000081EE04FE0DFF8BC80404541
:100FD00002D14FF0010816E0DFF8B080404502D1A1
:100FE0004FF002080FE0DFF8A880404502D14FF033
:100FF000030808E0DFF89C80404502D14FF0040868
:1010000001E04FF0070808FA07F848EA0608CCF8AC
:101010000888DAF800605746D1F804C09E435FEABA
:10102000CC2C00D51E433E60DBF800605F46D1F853
:1010300004C09E435FEA8C2C00D51E433E60DEF860
:1010400000607746D1F804C09E435FEA8C3C00D52F
:101050001E433E60084F083F3E68D1F804C09E43DF
:101060005FEACC3C00D51E433E60521C102AFFF4C0
:1010700031AFBDE8F88F0000083C01404438024021
:10108000003001400000024000040240000802401D
:10109000000C0240001002400069084000D001200E
:1010A00070470AB1816170470904FBE70148806815
:1010B0007047000030000020024881680278114427
:1010C00081607047300000200B4810B5016841F482
:1010D00000710160016841F480610160016841F4C0
:1010E00080710160032000F06FF8002000F006F826
:1010F00000F024F8002010BD003C024070B50D4DFA
:1011000004464FF47A712878B1FBF0F00A49096877
:10111000B1FBF0F000F00CFB48B9102C07D2002214
:101120002146501E00F030F800206C6070BD012098
:1011300070BD0000300000203C0000200A4808B5C7
:10114000016841F480410160006800F48040009033
:101150000548001F016841F080510160006800F0FF
:101160008050009008BD000044380240002809DB90
:1011700000F01F02012191404009800000F1E020B1
:10118000C0F8001170470000F0B40E4B1B680C460D
:10119000C3F30223C3F10705042D00D90425191D4B
:1011A000072901D2002300E0DB1E012606FA05F123
:1011B000491E214099409E40761E16403143F0BCA6
:1011C00002F080BC0CED00E0064900F00702086860
:1011D0004FF6FF03184040EA0220034A104308601C
:1011E000704700000CED00E00000FA052DE9F04723
:1011F0000E46050065D0DFF81481D8F80000F7B27C
:1012000000F00700B04207D288F80070D8F800005C
:1012100000F00700B04254D128683D4C810712D538
:10122000400703D5206840F4E0502060287800078C
:1012300003D5206840F4604020602068A96820F051
:10124000F000084320602878C0072DD03049686836
:101250000839012812D0022813D0032811D00968B8
:10126000890700292DDA216821F00301014321605B
:10127000FFF71CFF814641F2883A0EE009688903B6
:10128000EFE709688901ECE7FFF710FFA0EB090120
:10129000514502D90320BDE8F0872068696800F055
:1012A0000C00B0EB810FEFD1D8F80010404601F0F0
:1012B0000701B14207D90770006800F00700B0428B
:1012C00001D00120E7E72878400705D52068E968C4
:1012D00020F4E050084320602878000706D52068F5
:1012E000296920F4604040EAC100206000F038F82D
:1012F0002168084AC1F30311515CC84006490860DF
:1013000006480068FFF7FAFE0020C4E7003C0240F0
:1013100008380240D85A00083C0000203400002061
:101320000448054900680968044AC1F38221515CF8
:10133000C84070473C00002008380240E85A0008C6
:101340000448054900680968044AC1F34231515C08
:10135000C84070473C00002008380240E85A0008A6
:10136000154810B5006810F00C02144813D0144949
:10137000042A0FD0082A0ED10F4C241F226823689C
:1013800002F03F025B0207D52068C0F38810A0FB83
:10139000010106E0084610BD2168C1F38811A1FBD8
:1013A00000010023FEF76AFF2168C1F30141491CD7
:1013B0004900B0FBF1F010BD083802400024F400F1
:1013C00040787D012DE9F84F04006ED02078DFF8D9
:1013D0004C93C007A9F104054AD009F10400016843
:1013E000C1F38101012908D00068C0F381000228FF
:1013F0000AD1D9F80000400206D52868800337D505
:1014000060680028E1D033E06068B0F5803F10D01C
:10141000B0F5A02F286810D020F48030286028680C
:1014200020F4802028606068A8B1FFF73FFE0646E0
:101430000DE0286840F48030F4E740F48020286014
:10144000F7E700BFFFF732FE801B642873D82868D7
:101450008003F7D50CE0FFF729FE064605E000BF44
:10146000FFF724FE801B6428F0D828688003F7D497
:101470002078DFF8AC8280074FF0000A3ED5A748FD
:10148000001D016811F00C0F08D00068C0F3810046
:1014900002280BD1D9F80000400207D42868800741
:1014A00016D5E068012800D112E033E1E068B8B158
:1014B0000120C8F80000FFF7F9FD064605E000BF6F
:1014C000FFF7F4FD801B0228C0D828688007F7D5F5
:1014D0002868216920F0F80040EAC10028600DE08A
:1014E000C8F800A0FFF7E2FD064604E0FFF7DEFDC6
:1014F000801B02281FD828688007F7D420780007AF
:1015000022D5864F87486169703771B1012101602A
:10151000FFF7CCFD064604E0FFF7C8FD801B02285C
:1015200009D838688007F7D50EE0C0F800A0FFF7AB
:10153000BDFD064605E082E0FFF7B8FD801B0228EE
:101540007DD838688007F7D42078400768D5DFF861
:10155000CCB100270BF13C0BDBF80000C0000BD432
:10156000DBF8001041F08051CBF80010DBF80000F0
:10157000012700F0805000906B4E3068C00510D4F9
:10158000306840F480703060FFF790FD009005E017
:10159000FFF78CFD0099401A022850D83068C0052A
:1015A000F6D55E4EA0686C3601280FD0052830684D
:1015B00010D020F001003060306820F0040030606E
:1015C000A068B8B1FFF772FD00900FE0306840F0FE
:1015D0000100F4E740F004003060F7E7FFF766FD34
:1015E0000099411A41F28830814266D830688007FC
:1015F000F4D50EE0FFF75AFD009007E0FFF756FD27
:101600000099411A41F28830814256D830688007EB
:10161000F4D42FB1DBF8001021F08051CBF800108A
:10162000A069C8B33D49091D0968C1F381010229B8
:101630004AD00228504607D0C8F8600000E03CE0DD
:10164000FFF734FD04463BE04746C8F86000FFF76B
:101650002DFD064605E000BFFFF728FD801B022890
:101660002BD828688001F7D4D4E907010843A16A80
:101670002E4A490802EB0141626A41EA821108439D
:1016800094F82C1040EA0161C9F800100120386676
:10169000FFF70CFD044606E03EE000BFFFF706FD45
:1016A000001B022809D828688001F7D534E000BF64
:1016B000FFF7FCFC001B022802D90320BDE8F88FCD
:1016C00028688001F4D427E00128F7D0D9F8000079
:1016D000E26900F4800191421CD1226A00F03F01CE
:1016E000914217D147F6C071626A0140B1EB821F87
:1016F00010D1A26A4FF0FF3300F4403103EB5202E5
:10170000B1EB024F06D194F82C1000F07060B0EBF2
:10171000016F01D00120D1E70020CFE7043802405B
:1017200000004742800E4742007000400000FFFF6B
:1017300010B5401EB0F1807F01D3012010BD4FF0E5
:10174000E02460610F21601702F0BCF90020A06165
:1017500007202061002010BD7047704770B590F8D9
:101760003C20012A2CD0012480F83C40022280F841
:101770003D2003685A689D6822F070060A6832436B
:101780005A60104B02689A420ED0B2F1804F0BD0D3
:101790000D4B9A4208D00D4B9A4205D00C4B9A4201
:1017A00002D00C4B9A4204D1496825F080031943BA
:1017B000916080F83D40002180F83C10084670BDE3
:1017C000022070BD000001400004004000080040FD
:1017D000000C00400040014010B5040003D094F814
:1017E0003D0010B107E0012010BD002084F83C004E
:1017F000204600F01FF8022084F83D00211D2068DB
:1018000001F044FE012084F8460084F83E0084F88C
:101810003F0084F8400084F8410084F8420084F8D6
:10182000430084F8440084F8450084F83D0000201B
:1018300010BD000008B501681948B1F1804F11D002
:10184000184A914217D1016841F002010160006815
:10185000002200F00200009001211D20FFF794FCFF
:101860001D2019E0016841F001010160006800F0ED
:101870000100009008BD0C4A9142FBD1016841F083
:10188000040101600068002200F0040000900121C2
:101890001E20FFF779FC1E20BDE80840FFF766BC5C
:1018A00040380240000400400008004090F83D101D
:1018B000012901D001207047022180F83D10006805
:1018C0000E4988420ED0B0F1804F0BD00C498842AF
:1018D00008D00C49884205D00B49884202D00B49F8
:1018E000884204D1816801F00701062903D001680C
:1018F00041F001010160002070470000000001403C
:101900000004004000080040000C0040004001407E
:1019100090F83D10012901D001207047022180F884
:101920003D100168CA6842F00102CA6000680E49B1
:1019300088420ED0B0F1804F0BD00C49884208D0BD
:101940000B49884205D00B49884202D00A49884297
:1019500004D1816801F00701062903D0016841F034
:1019600001010160002070470000014000040040B8
:1019700000080040000C00400040014001680A6A75
:1019800041F211131A4207D10A6A9B101A4203D17D
:101990000A6822F001020A60012180F83D1000204F
:1019A000704770B5044690F83C000025012817D018
:1019B000012684F83C60022084F83D00206882689B
:1019C00022F0770222F47F4282600868502838D0E3
:1019D0000DDC20284FD005DC90B3102811D14AE04F
:1019E000022070BD302846D040280AD13BE0602854
:1019F0002FD070280DD0B0F5805F03D0B0F5005F18
:101A000012D0012584F83D60002084F83C0028466F
:101A100070BDCB68D1E90121206801F096FD2068F6
:101A2000816841F0770109E0CB68D1E901212068A4
:101A300001F08BFD2068816841F480418160E1E71D
:101A400019E0CA684968206801F034FE5021206816
:101A500006E0CA684968206801F03DFE6021206800
:101A600001F07DFDCEE7CA684968206801F022FEDA
:101A700040212068F4E7226801461046F0E77047ED
:101A80002DE9F04104460068C66805694FF000077B
:101A9000A90713D5B10711D5F91E016101202077DF
:101AA000206880698007204602D0FFF7E8FF04E045
:101AB00000F0A4F8204600F036F92777680716D51D
:101AC000700714D521686FF00400086102202077A8
:101AD0002068806910F4407F204602D0FFF7CFFFD6
:101AE00004E000F08BF8204600F01DF92777280766
:101AF00015D5300713D521686FF008000861042060
:101B000020772068C0698007204602D0FFF7B7FF22
:101B100004E000F073F8204600F005F92777E806A6
:101B200016D5F00614D521686FF010000861082062
:101B300020772068C06910F4407F204602D0FFF76C
:101B40009EFF04E000F05AF8204600F0ECF82777FA
:101B5000E80708D0F00706D021686FF0010008619F
:101B6000204600F039F9280608D5300606D5216848
:101B70006FF0800008612046FFF7EEFD680608D58B
:101B8000700606D521686FF040000861204600F01D
:101B900024F9A8060AD5B00608D521686FF0200000
:101BA00008612046BDE8F041FFF7D7BDBDE8F081F0
:101BB00010B586B0044614216846FEF74FFC206835
:101BC000B0F1804F14D10B480021026842F00102AD
:101BD00002600068022200F00100059001200090E0
:101BE000CDE90121CDE9031069460348FFF764F907
:101BF00006B010BD3038024000000240704770B59A
:101C0000044690F83C0000260D4601280FD0012024
:101C100084F83C006AB1042A1DD0082A2FD00C2A6F
:101C20003FD00126002084F83C00304670BD0220E1
:101C300070BD206801F09CFC2068816941F00801BA
:101C400081612068816921F00401816120688169D6
:101C50002A69114311E0206801F0B2FC2068816913
:101C600041F4006181612068816921F480618161B2
:101C7000206881692A6941EA02218161D2E72068EE
:101C800001F0CAFC2068C16941F00801C161206807
:101C9000C16921F00401C1612068C1692A69114349
:101CA00011E0206801F0E4FC2068C16941F40061A2
:101CB000C1612068C16921F48061C1612068C16986
:101CC0002A6941EA0221C161ACE710B5040003D0E2
:101CD00094F83D0010B107E0012010BD002084F809
:101CE0003C00204600F01EF8022084F83D00211D33
:101CF000206801F0CBFB012084F8460084F83E0008
:101D000084F83F0084F8400084F8410084F84200E1
:101D100084F8430084F8440084F8450084F83D00CA
:101D2000002010BD7047704710B50446022249B12B
:101D300004290ED0082913D094F84100012816D0A8
:101D4000012010BD94F83E000128F9D184F83E200E
:101D50000FE094F83F000128F2D184F83F2008E01A
:101D600094F840000128EBD184F8402001E084F889
:101D700041200122206801F0DBFB124920688842E3
:101D800003D1426C42F400424264206888420ED083
:101D9000B0F1804F0BD00C49884208D00B498842E3
:101DA00005D00B49884202D00A49884204D1816893
:101DB00001F00701062903D0016841F0010101602B
:101DC000002010BD00000140000400400008004059
:101DD000000C00400040014070477047704770475A
:101DE000F8B5016804460868CA684B6910F00F0F1F
:101DF0004FF0000559D003F0010602F49077374305
:101E000065D0C10705D0D10503D5616C41F0010152
:101E10006164410705D5D90703D0616C41F0020127
:101E20006164810705D5D90703D0616C41F00401D5
:101E30006164010707D502F02001314303D0616CD2
:101E400041F008016164616C00293AD0800604D534
:101E5000900602D5204601F07FFC20684069616C45
:101E6000C0F38010090700D460B3204601F04DFC98
:101E700020684069400621D52068143050E8001FD2
:101E800021F0400140E80012002AF5D1E06BA8B132
:101E90006E490165E06BFEF7FCFF002811D0E06B96
:101EA000016D01B0BDE8F040084783060FD59306E9
:101EB0000DD52046BDE8F84001F04EBC2046FFF7A6
:101EC0008EFFF8BD2046FFF78AFF6564F8BD266BDC
:101ED0002023012E7DD1C6067BD5D60679D508688C
:101EE0004868009048694FF00206400641D5E16B12
:101EF000086840680004000CE8D0A28D8242E5D951
:101F0000E085C869B0F5807F2DD020680C3050E89E
:101F1000001F21F4807140E80012002AF5D12068EA
:101F2000143050E8001F21F0010140E80012002A9F
:101F3000F5D12068143050E8001F21F0400140E83E
:101F40000012002AF5D184F84230256320680C3055
:101F500050E8001F21F0100140E80012002AF5D1DE
:101F6000E06BFEF74DFF6663A08DE18D401A81B2F4
:101F70002AE0A08DE18D401A81B2E08D0028A5D025
:101F80000029A3D022680C3252E8000F20F4907090
:101F900042E80007002FF5D12068143050E8002FE8
:101FA00022F0010240E80027002FF5D184F84230EA
:101FB000256320680C3050E8002F22F0100240E822
:101FC0000023002BF5D166632046FFF707FFF8BD1D
:101FD000FFE705062BD5150629D594F841002128E1
:101FE000F5D1A068B0F5805F01D12069B0B1206A59
:101FF000411C2162216800784860E08C401E00048A
:10200000000CE084E3D12068C16821F08001C16048
:102010002068C16841F04001C160D8E7206A0088AB
:10202000C0F308004860206A801C2062E5E7400693
:10203000CDD55006CBD5CA68204622F04002CA60F2
:1020400084F8413000F06EF9C1E70000FB3600086B
:1020500070B5040004D094F84100002510B106E0EA
:10206000012070BD84F84050204600F023F8242061
:1020700084F841002068C16821F40051C160204605
:1020800001F0CCFB2068016921F4904101612068D6
:10209000416921F02A0141612068C16841F4005181
:1020A000C1606564202084F8410084F842006563C3
:1020B000002070BDF0B587B0044614216846FEF7D5
:1020C000CDF92A49284F26680025284A14390223C9
:1020D00003242748BE421FD1166846F0100616603A
:1020E000126802F0100205920A6842F001020A60CA
:1020F000096801F00101059161028DE82A000721BC
:10210000CDE903416946FEF7D7FE002201212520D3
:10211000FFF73AF8252022E0164FBE4221D116687B
:1021200046F020061660126802F0200205920A6846
:1021300042F001020A60096801F0010105914FF4C3
:10214000C0518DE82A000821CDE903416946FEF718
:10215000B3FE002201214720FFF716F84720FFF7C2
:1021600005F807B0F0BD00000010014044380240FF
:1021700000000240001401402DE9F84F044690F899
:1021800042009A4616460D46202802D00220BDE89D
:10219000F88FB5B1AEB100206064222184F84210FE
:1021A0002063FEF783FFA6858146E685A0684FF48D
:1021B00080582027404501D1206920B12E460025B6
:1021C00029E00120E3E7002625E04B4600222021FC
:1021D0002046CDF800A001F0C2FB18B184F842708F
:1021E0000320D4E726B1A06840451AD038B108E0F2
:1021F00020684068C0F3080025F8020B08E0206959
:1022000078B12068406800F07F0000BF06F8010B3D
:10221000E08D401EE085E08D0028D6D184F8427024
:10222000B5E720684068F1E790F84230202B01D0F4
:102230000220704721B11AB10023036301F074BB7F
:102240000120704700680B49884211D10A480022DA
:102250000178322902D0332904D004E0074BFA2157
:102260001B68596302700F2203490548FFF7DCBF62
:102270007047000000100140540500206405002054
:10228000CC0700202DE9F843044690F84100984619
:1022900016460D46202802D00220BDE8F88385B1FD
:1022A0007EB100206064212084F84100FEF7FEFE2C
:1022B000A6848146E684A0682027B0F5805F02D01E
:1022C00003E00120E9E7206910B12E4600250EE069
:1022D00000260CE08021204601F041FBA8B9C6B1E0
:1022E00016F8010B21684860E08C401EE084E08C09
:1022F0004B464FF00002CDF800800028EAD14FF0A5
:102300004001204601F02BFB40B184F841700320CE
:10231000C3E735F8020BC0F30800E3E784F8417027
:102320000020BAE77047FEE71CB5EF218DF80010DA
:1023300001218DF8011014498308154849680A0ED7
:102340008DF802200A0C8DF803200A0A8DF804206B
:102350008DF8051007218DF8061000218DF8071063
:102360004FF4C8720949FFF707FF0722074968467B
:10237000FEF724F828B969460448FEF70DF800284E
:1023800000D100201CBD0000040000203C060020FD
:10239000140800202DE9F05FA04D00242246012101
:1023A0002846FEF77EFE012202212846FEF779FE2E
:1023B000012204212846FEF774FE012280212846CE
:1023C000FEF76FFEAE1431462846FEF765FE4FF469
:1023D00000584FF480494FF4004A90B147464146B7
:1023E0002846FEF759FEA0B14F4649462846FEF75B
:1023F00053FEB0B1574651462846FEF74DFEC0B1D8
:102400001EE031462846FEF747FE0028F9D00A2490
:1024100016E039462846FEF73FFE0028F9D00B2487
:102420000EE039462846FEF737FE0028F9D00C2486
:1024300006E039462846FEF72FFE0028F9D00D2485
:10244000012211462846FEF72CFE002202212846D2
:10245000FEF727FE012204212846FEF722FE012274
:1024600080212846FEF71DFEB34631462846FEF77A
:1024700013FE6B4F002678B141462846FEF70CFE4E
:1024800098B149462846FEF707FEB8B1514628469E
:10249000FEF702FED8B123E05C4621462846FEF74F
:1024A000FBFD0028F9D0072419E0444621462846C0
:1024B000FEF7F2FD0028F9D0082410E04C46214632
:1024C0002846FEF7E9FD0028F9D0092407E0544624
:1024D00021462846FEF7E0FD0028F9D000243E7092
:1024E000012211462846FEF7DCFD01220221284682
:1024F000FEF7D7FD002204212846FEF7D2FD012277
:1025000080212846FEF7CDFD59462846FEF7C4FD3A
:1025100078B141462846FEF7BFFD98B149462846A6
:10252000FEF7BAFDB8B151462846FEF7B5FDE0B159
:1025300023E05C4621462846FEF7AEFD0028F9D090
:10254000042410E0444621462846FEF7A5FD002855
:10255000F9D0052407E04C4621462846FEF79CFDAD
:102560000028F9D006243E7007E05446214628464C
:10257000FEF792FD0028F9D00E24012211462846CC
:10258000FEF78FFD012202212846FEF78AFD012277
:1025900004212846FEF785FD002280212846FEF70B
:1025A00080FD59462846FEF777FD80B14146284612
:1025B000FEF772FDA0B149462846FEF76DFDC0B199
:1025C000564651462846FEF767FDE0B122E05C46DC
:1025D00021462846FEF760FD0028F9D0012410E0CE
:1025E000444621462846FEF757FD0028F9D002242C
:1025F00007E04C4621462846FEF74EFD0028F9D05C
:1026000003243E7006E031462846FEF745FD0028CB
:10261000F9D00F242046BDE8F09F000000040240DE
:1026200000000020F0B587B014216846FDF716FFC2
:102630002E480024016841F080010160016801F02A
:1026400080010591016841F001010160016801F01C
:1026500001010591016841F0020101600068244E0A
:1026600000F002000590002248F270013046FEF7AB
:1026700018FD204F002240F287313846FEF711FD49
:10268000012211023046FEF70CFD48F27010009056
:102690000125CDE90154694630460394FEF70CFC50
:1026A0008020CDE90004694630460294FEF704FC20
:1026B00087200090CDE90154694638460394FEF71F
:1026C000FBFB4FF470408DE8310069463846FEF759
:1026D000F3FB4FF4407000901120CDE901046946EE
:1026E00038460394FEF7E8FB07B0F0BD30380240EF
:1026F000000002400004024010B58EB00024079490
:10270000089409940A940B941C2168460C94FDF7D4
:10271000A5FE1F484FF08041016040F2CF21C0E983
:10272000011440F2CF71C0E9031480218161FFF7E9
:1027300053F808B1FEF762FB4FF48050079007A9E9
:102740001348FFF72EF908B1FEF758FB1048FFF7C2
:10275000BCFA08B1FEF752FB0B940BA90C480C9481
:10276000FEF7FCFF08B1FEF749FB6020CDE900044D
:1027700002940022694606480494FFF740FA08B123
:10278000FEF73CFB0248FFF713FA0EB010BD000045
:102790006405002010B586B0002417480094019409
:1027A0000294039404941349059401604721C0E9FD
:1027B00001144FF6FF71C0E903148461FFF70CF8B0
:1027C00008B1FEF71BFB4FF48050009069460A48A1
:1027D000FFF7E7F808B1FEF711FB049404A90648D7
:1027E0000594FEF7BBFF002801D0FEF707FB06B0FB
:1027F00010BD000000040040AC05002010B586B0FC
:1028000000241748009401940294039404941349FB
:102810000594016041F61F41C0E901146321C0E93C
:1028200003148461FEF7D8FF08B1FEF7E7FA4FF40E
:102830008050009069460A48FFF7B3F808B1FEF7E8
:10284000DDFA049404A906480594FEF787FF0028E2
:1028500001D0FEF7D3FA06B010BD0000000800401A
:10286000F40500200C4810B50A4901604FF41651D8
:102870004160002181600C22C160C0E904128161C5
:10288000C161FFF7E5FB002803D0BDE81040FEF76B
:10289000B5BA10BD00100140CC0700200C4810B59F
:1028A0000A4901604FF461414160002181600C22BE
:1028B000C160C0E904128161C161FFF7C9FB002852
:1028C00003D0BDE81040FEF799BA10BD00140140D6
:1028D00014080020FEE7000001B54FF0FF3301228D
:1028E00069460248FFF7CEFC08BD0000140800202E
:1028F000FEE7000030B40021084C0A46002004EB3B
:10290000C1131A54401CC0B28028FAD3491CC9B262
:102910000829F3D330BC00F0E9B9000040000020E2
:10292000F0B57F282AD83F2928D88418802C02D9CE
:10293000C0F18002D2B2CC18402C02D9C1F14003C0
:10294000DBB20126DFF838E087180B4414E001F011
:10295000070206FA02F5CA0804460EEBC21207E0A7
:1029600012F804C02CEA050C02F804C0641CE4B29E
:10297000A742F5D8491CC9B28B42E8D8F0BD000087
:102980004000002010B500204FF47A720021491C4D
:102990009142FCD3401C9042F8D3FFF743FE012044
:1029A00000F0B8F9BDE81040012000F0BBB970B5E7
:1029B00000240546802626FA04F0284000D0012095
:1029C00000F0B0F9012000F0A5F9002000F0A2F914
:1029D000641CE4B2082CEED3012000F09BF9BDE8A2
:1029E0007040002000F096B910B5012000F09AF96F
:1029F000012000F08FF9002000F094F9BDE81040AC
:102A0000002000F087B910B5002000F08BF90120FC
:102A100000F080F9BDE81040012000F083B910B546
:102A2000FFF7B0FFAE2000F085F9D52000F082F965
:102A3000802000F07FF9A82000F07CF93F2000F012
:102A400079F9D32000F076F9002000F073F94020E6
:102A500000F070F9A12000F06DF9C82000F06AF9CB
:102A6000DA2000F067F9122000F064F9812000F00C
:102A700061F9CF2000F05EF9D92000F05BF9F12078
:102A800000F058F9DB2000F055F9302000F052F941
:102A9000A42000F04FF9A62000F04CF98D2000F0A2
:102AA00049F9142000F046F9AF2000F043F9FFF790
:102AB00021FFBDE8104000F019B90246012000E0F6
:102AC0005043491EFCD2704710B50C4640F0B00090
:102AD00000F030F9102040EA141000F02BF904F057
:102AE0000F00BDE8104000F025B9000008B5082B24
:102AF00002D0062B09D013E00B4B03EB0212A2F518
:102B0000007210230092082208E0084B02EB4202F8
:102B100003EB4202C03A00920823062200F050F86C
:102B2000BDE8084000F0E2B87E4600086E4C0008A0
:102B30002DE9FC5F002490468B4682462546DFF84F
:102B40007890019430E001A90855641CE4B2022C8D
:102B500028D30024264606E0384601A9FDF7A6FC46
:102B600068B1761CF6B2C6EBC60000EB800101EB43
:102B70000900074611A1FDF799FC0028ECD1C6EB2E
:102B8000C60000EB800101EB0900C01C0090681C2E
:102B900041080AEB011010381023C0B21A465946FA
:102BA00000F00EF86D1CEDB218F805000028CAD12F
:102BB00000F09CF8BDE8FC9FA84E00080000000053
:102BC0002DE9FC4F1F4615460C4606467F284BD87C
:102BD0003F2C49D8FFF7A4FE791ECA17002001EB4D
:102BE00052710122DFF884B004F0070902EBE10220
:102BF00038E0002332E0F1187F2931D800EBD40A05
:102C0000BAF1070F30D80BEBCA1E1EF8017010FB8B
:102C100005FCCDF804C0DDF82C809844CDF8008088
:102C20001CF808C00CFA09FC47EA0C070EF8017002
:102C30000AF10107072F0FD80EEB0108DDE900C1EB
:102C400098F8807011F80CC0C9F108012CFA01FC49
:102C500047EA0C0788F880705B1CDBB2AB42CAD332
:102C6000401CC0B28242C4DCBDE8FC8F40000020A2
:102C70002DE9F04700241D4690468A4681460A27E2
:102C8000089E14E0291B0A20491EFFF716FFB8FB17
:102C9000F0F0B0FBF7F107FB110204FB0690C0B2A5
:102CA000334651463032FFF721FF641CE4B2AC4298
:102CB000E8D3BDE8F04700F019B82DE9F0411E4611
:102CC000154688460746002408E014FB0670C0B28B
:102CD00033464146FFF70AFF641CE4B22A5D002A2E
:102CE000F3D1BDE8F04100F001B8000070B5084D27
:102CF000002400212046FFF7E7FE05EBC4108021E9
:102D000000F029F8641CE4B2082CF2D370BD000076
:102D10004000002002464FF480710148FEF7C1B91F
:102D20000004024002464FF400710148FEF7B9B9B1
:102D30000004024010B50446FFF756FE7820FFF766
:102D400036FE0020FFF733FE2046FFF730FEBDE8D9
:102D50001040FFF758BE70B50D460646FFF744FE1B
:102D60007820FFF724FE4020FFF721FE002404E036
:102D7000305DFFF71CFE641CE4B2AC42F8D3BDE842
:102D80007040FFF740BE70B50C46054600F000FBF2
:102D900000F0DCFA0120FFF79FFD072000F001FBA7
:102DA0000C20FFF799FD2E0A3046FFF795FDE8B29B
:102DB000FFF792FD200AFFF78FFDE0B2FFF78CFDD1
:102DC00056FA85F000EB1420E1B20844143000F00C
:102DD000D5FA4FF4FA60FFF7A7FA08B1407A70BD50
:102DE000FF2070BD10B500F0D3FA00F0AFFA01205B
:102DF000FFF772FD032000F0D4FA0D20FFF76CFD01
:102E0000112000F0BBFA4FF4FA60FFF78DFA08B119
:102E1000407A10BDFF2010BD10B5044600F0B8FA8E
:102E200000F094FA0120FFF757FD042000F0B9FAF2
:102E30000220FFF751FD2046FFF74EFDE01D00F098
:102E40009DFA4FF4FA60FFF76FFA08B1407A10BDAF
:102E5000FF2010BD10B500F09BFA00F077FA0120BA
:102E6000FFF73AFD032000F09CFA0120FFF734FD44
:102E7000052000F083FA4FF4FA60FFF755FA08B125
:102E8000407A10BDFF2010BD2DE9F0411E461446CA
:102E90000D46074600F07CFA00F058FA0120FFF7D3
:102EA0001BFD082000F07DFA1B20FFF715FD3846BA
:102EB000FFF712FD280AFFF70FFDE8B2FFF70CFD40
:102EC000200AFFF709FDE0B2FFF706FD07EB15202A
:102ED000E9B2084400EB1420E1B20844243000F0C9
:102EE0004DFA4FF4FA60FFF71FFA58B1C27A837AAD
:102EF000417A02EB03223280427B007B02EB00200E
:102F0000708000E0FF210846BDE8F08110B500F0B8
:102F10003FFA00F01BFA0120FFF7DEFC032000F06F
:102F200040FA0320FFF7D8FC072000F027FA4FF4FF
:102F3000FA60FFF7F9F908B1407A10BDFF2010BD23
:102F400010B500F025FA00F001FA0120FFF7C4FCEB
:102F5000032000F026FA0520FFF7BEFC092000F050
:102F60000DFA4FF4FA60FFF7DFF908B1407A10BDAF
:102F7000FF2010BD70B50C46054600F009FA00F0C0
:102F8000E5F90120FFF7A8FC062000F00AFA062068
:102F9000FFF7A2FC2846FFF79FFC200AFFF79CFCE6
:102FA000E0B2FFF799FC05EB1420E1B208440D30C4
:102FB00000F0E4F94FF4FA60FFF7B6F908B1407A8F
:102FC00070BDFF2070BD03211420FDF7D6BD10B5E4
:102FD000142000F03DF9800705D10321BDE8104021
:102FE000142000F0E9B910BD70B50646082188B07C
:102FF00000240846FDF7C1FD00210D2000F0F6FC7D
:1030000080210E20FDF7B9FD93208DF804002020CB
:103010008DF8050006A801AB0090022219460C208D
:1030200000F018F8054626280DD1002101A8425CC1
:103030007254425C491C5440C9B20429F7D3405C25
:10304000A04200D0BB2580210E2000F0B5F908B0C9
:10305000284670BD2DE9FF5F0027BB25DDF838A0AD
:1030600016468B468146B8460C2805D0B9F10E0F9E
:1030700005D11227102001E077273020804647F045
:103080008001022000F0B2FC80210420FDF775FDD4
:103090000021012000F0AAFC80210A2000F08CF918
:1030A000002405E01BF80410092000F09FFC641CBC
:1030B000B442F7D34946012000F098FCB9F10C0F57
:1030C00003D180210D2000F077F9042000F0C0F832
:1030D00040F2DC56042000F0BBF80446761E04D013
:1030E000E00702D114EA080FF4D080210D20FDF78B
:1030F00044FD36B1062000F0ABF810F01B0F0CD0E9
:10310000BB2580210C2000F057F90021012000F0A0
:103110006DFC04B02846BDE8F09F26253C40E00742
:1031200000D0CC25B9F10C0FEBD10A2000F090F8BB
:1031300004460C2000F08CF810F007004FEAC401A0
:1031400001D008390144CAF8001024B1122C04D966
:103150001224002603E00124FBE7002605E00920F5
:1031600000F076F803998855761CA642F7D3C8E795
:1031700030B50C460546082187B00846FDF7FDFC32
:1031800007210D2000F032FC0321142000F014F977
:1031900006A801AB00908DF80450012219460C20BE
:1031A000FFF758FF262802D10699102902D0BB202C
:1031B00007B030BD9DF8041021709DF805106170B6
:1031C000F6E7000070B501221F4DD40321462846C2
:1031D000FDF767FF0120FDF7F3FD00222146284699
:1031E000FDF75FFF0120FDF7EBFD01222146284698
:1031F000FDF757FF0120FDF7E3FD0F21012000F04F
:10320000F5FB012000F024F8C006FAD40120FDF7F8
:10321000D7FD3D21112000F0E9FB1E212D2000F0FB
:10322000E5FB00212C2000F0E1FB8D212A2000F09D
:10323000DDFB3E212B2000F0D9FB4021152000F0C2
:10324000D5FB262070BD0000000002407047000042
:103250002DE9F041354C064600252A46202120461E
:10326000FDF71FFF0220FDF7ABFD002210212046D5
:10327000FDF717FF0220FDF7A3FD7E2000EA4600C0
:1032800040F080070826380601D5012200E0002220
:1032900040212046FDF705FF0220FDF791FD0122A8
:1032A00020212046FDF7FDFE0220FDF789FD78066E
:1032B000070E002220212046FDF7F3FE0220FDF735
:1032C0007FFD761E16F0FF06DDD1082601222021A3
:1032D0002046FDF7E6FE0220FDF772FD6806070EA8
:1032E00080212046FDF7D8FE40EA07050022202174
:1032F0002046FDF7D6FE0220FDF762FD761E16F091
:10330000FF06E3D1012220212046FDF7CAFE02205C
:10331000FDF756FD012210212046FDF7C2FE0220D6
:10332000FDF74EFD2846BDE8F08100000000024098
:103330000020044902460A54401C80B20628FAD3F1
:1033400070470000290000207047000010B50A4CAB
:103350006068000EFFF7C0FA6068C0F30740FFF72F
:10336000BBFAA088C0F30720FFF7B6FA2079BDE8C2
:103370001040FFF7B1BA00000400002010B5044669
:10338000000AFFF7A9FAE0B2BDE81040FFF7A4BABF
:1033900010B5EF20FFF7A0FABDE810400120FFF7BD
:1033A0009BBA10B50446C0F30720FFF795FAE0B2C8
:1033B000BDE81040FFF790BA70B50C460546FFF720
:1033C00047FF40EA04012846BDE8704000F00EBB0C
:1033D000FDF772BE30B593B030216846FDF73EF878
:1033E00014210CA8FDF73AF81C480025016841F0AB
:1033F00080510160006800F0805011901848016809
:1034000041F4404101600068022400F44040119002
:1034100001200090000401908001CDE906401920B0
:1034200008909020CDE9090404200B906846FDF730
:10343000C9FF08B172B6FEE70CA90F2081E8310080
:103440004FF48050CDE90F0502210CA8FDF7CEFE08
:10345000002801D072B6FEE713B030BD40380240FC
:10346000007000400248016841F47001016070473B
:1034700088ED00E00148FEF703BB0000AC0500202A
:103480000148FEF7FDBA0000F4050020F0B502681F
:10349000204B214C9F03214D214E984207D0B8422A
:1034A00005D0A04203D0A84201D0B04204D122F0FE
:1034B000700C4A6842EA0C02984210D0B8420ED012
:1034C000A0420CD0A8420AD0B04208D0154CA0426D
:1034D00005D0154CA04202D0144CA04203D122F4D6
:1034E0004074CA6822434C6922F080022243026081
:1034F0008A68C2620A688262984201D109690163DE
:10350000012141610169C90703D0016921F001016D
:103510000161F0BD000001400004004000080040CF
:10352000000C0040004001400044014000480140C0
:1035300010B501F01F030121046A99408C43046215
:10354000016A9A401143016210BD10B5846842EAD5
:10355000032224F47F440A432243826010BD826820
:1035600022F070020A4342F00701816070470000B8
:1035700030B5036A026A22F001020262426884697D
:1035800024F073050C682C4323F002058B682B4351
:103590000A4DA8420BD123F00805CB6822F44072F3
:1035A0002B434D6923F0040315438A692A43426083
:1035B000846149684163036230BD0000000001403E
:1035C00030B5026A036A23F010030362436884691A
:1035D0000D6824F4E64444EA05248D6822F02002B4
:1035E00042EA05120B4DA8420ED1CD6822F08002AE
:1035F00042EA05124D6923F4406343EA85038D696D
:1036000022F0400243EA8503436084614968816394
:10361000026230BD0000014030B5036A026A22F444
:10362000807202624268C46923F4007324F0730557
:103630000C682C438D6843EA05230C4DA8420ED13B
:10364000CD6823F4006343EA05234D6922F4405218
:1036500042EA05128D6923F4806342EA0512426052
:10366000C4614968C163036230BD000000000140CD
:1036700030B5046A026A22F4805202624268C36969
:103680000D6823F4E64343EA05238D6824F40054CF
:1036900044EA0534064DA84204D14D6922F4804223
:1036A00042EA85124260C36149680164046230BD28
:1036B0000000014010B5036A046A24F001040462AA
:1036C000846924F0F00444EA021423F00A020A4355
:1036D0008461026210BD10B5036A046A24F010040C
:1036E0000462846923F0A00324F4704444EA0232A3
:1036F00043EA01118261016210BD10B5806B0021A7
:10370000C185C184FEF76BFB10BD01680C3151E827
:10371000002F22F4907241E80023002BF5D10168BC
:10372000143151E8002F22F0010241E80023002B60
:10373000F5D1016B012909D101680C3151E8002F45
:1037400022F0100241E80023002BF5D1202180F85F
:10375000421000210163704708B590F842102229F9
:1037600001D0022008BD82684FF480539A4201D1F3
:10377000016921B1816A9A421BD04AB10AE002680C
:10378000816A5268C2F308020A80816A891C08E0D3
:10379000026972B10268526802F07F020A70816A9F
:1037A000491C8162C18D491E0904090CC18503D0E1
:1037B0001BE002685268F1E70168CA6822F0200243
:1037C000CA600168CA6822F48072CA6001684A69E6
:1037D00022F001024A61202180F842100021416359
:1037E000026B012A03D0FEF72DFD002008BD016306
:1037F00001680C3151E8002F22F0100241E800234B
:10380000002BF5D101680A68D20602D50A6849681A
:103810000091818DFEF7E2FAE7E7000070B50446FB
:1038200000680169E26821F4405111430161216996
:10383000A068E26908436169114308432168CA68C6
:1038400049F20C639A430243CA6020684169A26945
:1038500021F440711143416131492068884202D00E
:103860003049884202D1FDF76BFD01E0FDF758FDBC
:10387000E2690023192164253226B2F5004F6268FF
:1038800028D0A0FB0101930F9200FCF7F7FC014642
:10389000B0FBF5F06FF01802504301EB800006EB2F
:1038A0000010B0FBF5F000F0F002B1FBF5F002EB18
:1038B0000012B1FBF5F06FF01803584301EB8000E4
:1038C00006EB0010B0FBF5F000F00F00216810448B
:1038D000886070BDA0FB010192185B41FCF7CEFC33
:1038E0000146B0FBF5F00201B1FBF5F06FF01803F3
:1038F000584301EB800006EBC000B0FBF5F000F090
:10390000F80002EB4002B1FBF5F0584301EB8000F8
:1039100006EBC000B0FBF5F000F00700D6E70000B2
:10392000001001400014014081628285C28500219F
:103930004164222180F84210016921B10168CA68FE
:1039400042F48072CA6001684A6942F001024A6129
:103950000068C16841F02001C160002070472DE976
:10396000F843984617460D460446089E24E0701C0E
:1039700022D0FDF79BFBA0EB0800B0421AD8CEB1D5
:103980002068C168490717D5802D15D0402D13D068
:103990000168C94309070FD40168002540680090F9
:1039A0002046FFF7B2FE0820606484F840500120F2
:1039B000BDE8F8830320FBE72068006835EA0000D3
:1039C00004D00020B842D2D00020F1E70120F9E76E
:1039D0000148FEF705BA0000CC0700200148FEF7B9
:1039E000FFB9000014080020FEE700002DE9F041B7
:1039F000334C0E460546002220212046FDF751FBA0
:103A0000002210212046FDF74CFB7E2000EA4507EE
:103A10000825380601D5012200E000224021204679
:103A2000FDF73FFB0220FDF7CBF9012220212046C4
:103A3000FDF737FB0220FDF7C3F97806070E0022D9
:103A400020212046FDF72DFB0220FDF7B9F96D1E60
:103A500015F0FF05DDD10825300601D5012200E073
:103A6000002240212046FDF71CFB0220FDF7A8F9AB
:103A7000012220212046FDF714FB0220FDF7A0F9CA
:103A80007006060E002220212046FDF70AFB0220C8
:103A9000FDF796F96D1E15F0FF05DDD101222021FD
:103AA0002046FDF7FEFA0220FDF78AF901221021D7
:103AB0002046FDF7F6FABDE8F0410220FDF780B997
:103AC000000002400907090E002804DB00F1E02095
:103AD00080F80014704700F00F0000F1E02080F83B
:103AE000141D704730380A2801D201207047002089
:103AF0007047000008B5FDF7E7FAFFF76BFCFEF72B
:103B000091FDFEF7AFFEFEF745FEFEF7F5FDFEF771
:103B1000C5FEFEF773FEFF496FF0010009680861FA
:103B2000FC48FDF7F5FEFEF77AFF0021FA48FEF7A4
:103B3000FBF8DFF8E4B33221DBF800004163012237
:103B4000F649F748FEF770FBFEF7D4FEDFF8DC938A
:103B5000DFF8D0A30127F44EA9F106080025A8F14B
:103B600011040021402328220846CDF800A0FFF7C9
:103B700027F8FFF7BBF8EEA200213020FEF7D8FFB0
:103B80000823EDA200216020FFF797F8EBA20021A7
:103B90006820FEF7CDFFEAA210213020FEF7C8FF13
:103BA000E9A220213020FEF7C3FF30210823E8A23C
:103BB0000846FFF782F8FEF7EDFBC0B260700128FF
:103BC00041D002287ED00328CBD1FEF793FEE1A29C
:103BD00000212020FEF7ACFF10210823E0A20846B8
:103BE000FFF76BF8DFA210212020FEF7A1FF0823CA
:103BF000DFA220211020FFF760F82021DDA2084677
:103C0000FEF796FF0823DEA230211020FFF755F8BB
:103C1000DCA230212020FEF78BFFFEF7BBFBC0B2F9
:103C2000207001287AD0032879D0052878D00C2874
:103C300077D00E28CBD1DBF800103220C1F8340049
:103C4000FEF758FE8DE7FEF755FE0823D0A20021AF
:103C50002020FFF732F81021CEA20846FEF768FFB9
:103C6000B3A220211020FEF763FF08233A2220216F
:103C70004020FEF73BFFAD4A0823123A202148209E
:103C8000FFF71BF82079F0B10128DED100224FF4B4
:103C90008071C348FDF705FAFEF72CFE00210823CA
:103CA000C0A20846FFF709F8FEF774FBC0B2207007
:103CB0000D28EBD1A570012225711102B848FDF73E
:103CC000F0F9C0E792E2FEF765FBC1B221703078EF
:103CD00040B10F2912D00E2976D00A2975D00C29AF
:103CE000A6D0D8E1914A0020921D13185B78135496
:103CF000401CC0B20528F8D35171CBE1A078DFF8A1
:103D00002CC2401CA0700CF1060CACF112009CF807
:103D100000100278914205D1012104E03DE342E325
:103D200047E3E2E000219CF8012043789A4201D168
:103D3000012200E0002211409CF8022083789A4280
:103D400001D1012200E0002211409CF80320C37839
:103D50009A4201D1012200E0002211409CF8042087
:103D600003799A4201D1012200E0002211409CF81F
:103D700005204079824201D1012000E0002001426B
:103D800024D06A488CA11238FCF744FB08238CA28B
:103D900020214820FEF791FFDBF80010FA2048634D
:103DA0008AA18B48FCF7E2FA82B24FF6FF7388498A
:103DB0005B48FEF767FAFFF7BBFA86A230211020B6
:103DC000FEF7B6FEA57066E10AE020E085A230218C
:103DD0001020FEF7ADFEA0780328F4D327715AE136
:103DE000524884A11238FCF715FBDBF80010322092
:103DF0004863FFF79DFA082380A230211020FEF7C8
:103E00005CFF4A4A0823123A2021482043E27FA25D
:103E100010210020FEF78CFE082381A22021002023
:103E2000FEF74BFFFEF7B6FAC1B22170307820B131
:103E30000F290FD00B29EAD1D2E13C4A0020921D74
:103E400013185B781354401CC0B20528F8D3517185
:103E50003770DCE73548801D0178052923D0002123
:103E60004278022A21D0002211408278022A1ED0F4
:103E700000221140C278E2B1002211400279D2B191
:103E8000002240791140082817D00020014216D0A6
:103E9000FFF74EFAE770082361A210210020FEF719
:103EA0000CFF64A212E00121DAE70122DCE7012223
:103EB000DFE70122E1E70122E3E70120E6E708234B
:103EC00057A210210020FEF7F8FE5EA2302100204C
:103ED000FEF72EFE4FF4FA60FCF766FF082350A2AF
:103EE00030210020FEF7E9FED5E06570A8E6082342
:103EF00058A210210020FEF7E0FE082355A2102151
:103F00007020FEF7DAFE102153A20846FEF710FEDD
:103F1000AAE00000F40500206405002054050020FC
:103F2000CC07002098590008000000202300002042
:103F3000C3C5D7B4CCAC00003A000000B9D800002B
:103F4000B0B4BCFC00000000D6B8CEC60000000033
:103F50004E464300D6B8CEC6BFAACBF8000000003C
:103F60004B310000BCFCCCEDBCD3D6B8CEC60000B3
:103F70004B330000BCFCC9BEB3FDD6B8CEC60000B2
:103F80004B350000BCFCD1E9D6A4D6B8CEC60000A3
:103F90004B657900C7EBCAE4C8EBC3DCC2EB000099
:103FA000000002402A2A2A2A2A2A2A2A2A2A2A2AD7
:103FB0002A2A2A2A000000004F70656E00000000C7
:103FC00020202020202020200000000031000000C0
:103FD00040040020C3DCC2EBCAE4C8EBD5FDC8B77F
:103FE00000000000C3DCC2EBCAE4C8EBB4EDCEF3C2
:103FF00000000000436C6F7365000000202020204B
:10400000202020202020202000000000C7EBCAE450
:10401000C8EBB9DCC0EDD4B1C3DCC2EB00000000DA
:104020002020202020202020202020202020202090
:1040300000000000B9DCC0EDD4B1C3DCC2EBD5FD9B
:10404000C8B70000B9DCC0EDD4B1C3DCC2EBB4ED3D
:10405000CEF3000020200000C7EBCAE4C8EBD0C2BA
:10406000C3DCC2EB00000000FEF794F9C2B222707C
:10407000307820B10F2A3AD00B2A0CD1B0E00020C2
:1040800041460B185B780B54401CC0B20528F8D38E
:1040900088F805203770E07800283FF4D6AD26E791
:1040A0000823AFF2500210210020FEF706FE08237D
:1040B000AFF2F00210216020FEF7FFFD1021E2A216
:1040C0000846FEF735FDFEF765F9C2B2227030787A
:1040D00058B9002049460B185B780B54401CC0B2FD
:1040E0000528F8D389F8052037700F2A03D0E07827
:1040F0000028D2D0D4E798F8001099F80020C446E0
:104100004846914201D1012100E000219CF80120A4
:1041100043789A4201D1012200E0002211409CF82C
:10412000022083789A4201D1012200E0002211404E
:104130009CF80320C3789A4201D1012200E00022BA
:1041400011409CF8042003799A4201D1012200E039
:104150000022114098F8052099F80500824201D10B
:10416000012000E0002001421BD0BAA23021002033
:10417000FEF7DEFC40F6B830FCF716FE0823AFF27F
:10418000601230210020FEF798FDB649002043461A
:104190001A5C0A54401CC0B20628F9D3E570A57019
:1041A00053E5B1A220210020FEF7C2FCB2A23021CB
:1041B0000020FEF7BDFC40F6B830FCF7F5FD082303
:1041C000AFF2A41220210020FEF777FD0823AFF202
:1041D000B01230215FF00000FEF76FFDE57034E5AE
:1041E0000823AFF2C41201210420F5E7FEF782FB99
:1041F000AFF2C42220211020FEF79AFC08233A22B5
:1042000020214020FEF772FC964A0823921F2021AD
:1042100048205EE008239CA200212020FEF74DFDEF
:10422000FEF7B8F8C0B220700C283FF45EAE0E283E
:104230000CD096495220FEF79BFF262832D0FEF77D
:10424000C1FFFEF7C0FEFEF7C2FEE3E7DBF8001099
:10425000322048630001FCF7A7FDAFF268218148D6
:10426000801FFCF7D7F8AFF2383220211020FEF77C
:104270005FFC08233A2220214020FEF737FC794AD0
:104280000823921F20214820FEF717FD0823AFF2D4
:10429000942230211020FEF710FD4FF44870FCF7F7
:1042A00083FDCDE47948FEF79FFE2628B2D17748FA
:1042B0000078B32810D0102175A20846FEF738FC0C
:1042C0004FF47A70FCF770FD0823AFF2D022102172
:1042D0000846FEF7F2FC9DE7102170A20846FEF7A3
:1042E00027FC4FF44870FCF75FFD0823AFF29C22D7
:1042F00010210846FEF7E1FC0823AFF2A8221021A6
:104300004020FEF7DAFCAFF2B03210212020FEF799
:104310000FFC4FF44870FCF747FDDBF80010FA2063
:104320004863AFF258316048FCF720F882B24FF68C
:10433000FF735D495D48FDF7A5FF4FF44870FCF73A
:1043400033FDAFF28C314748801FFCF763F8082338
:10435000AFF2943220214820FEF7AFFCAFF230429A
:1043600020211020FEF7E4FB08233A2220214020E0
:10437000FEF7BCFB3B4A0823921F20214820FEF792
:104380009CFC08234AA220216820FEF796FC082303
:10439000AFF2D032102120209BE72570FEF7AAFA59
:1043A000FCF7E4F913E42570FEF7A4FAFCF7F2FB3E
:1043B0000DE42570FEF79EFA3EA210212020FEF7A4
:1043C000B7FB00F07DF878B1DBF80010FA20486305
:1043D000AFF208413448FBF7C9FF82B24FF6FF73D2
:1043E00031493248FDF74EFFFEF784FAAFF29C42A6
:1043F00000212020FEF79CFB0823AFF29C421021F5
:104400000846FEF75AFCAFF2A44210212020FEF726
:104410008FFB0823AFF2A84220211020FEF74DFCAD
:10442000AFF2B04220210846FEF782FB0823AFF22C
:10443000B04230211020FEF740FCAFF2B8423021EC
:104440002020FEF775FBADE7C7EBD4D9B4CECAE4A4
:10445000C8EB0000D0C2C3DCC2EBC9E8D6C3B3C905
:10446000B9A6000017000020C1BDB4CECAE4C8EB55
:10447000B2BBCDAC00000000D0C2C3DCC2EBC9E8C7
:10448000D6C3CAA7B0DC00004943000040050020A5
:10449000D1E9D6A4CAA7B0DC00000000D1E9D6A4B7
:1044A000B3C9B9A60000000040040020CC070020DA
:1044B00020202000C7EBB0B4CAD6D6B80000000058
:1044C0007CB5484C14E000BFFDF764FF2070FEF798
:1044D000C1FC68B90120FEF79FFC002836D0FEF72A
:1044E00009FA41A210212020FEF722FBFEF7FEFB75
:1044F00020780128E8D1FEF7FDF93EA20021202016
:10450000FEF716FB102108233DA20846FEF7D5FB57
:104510003CA210212020FEF70BFB08233CA2202107
:104520001020FEF7CAFB20213AA20846FEF700FB46
:1045300008233BA230211020FEF7BFFB39A2302117
:104540002020FEF7F5FAFEF7D1FB10E001AB632265
:1045500000210120FEF798FC40F2DC5448B134A25F
:1045600010212020FEF7E4FA2046FCF71DFC002075
:104570007CBD102131A20846FEF7DAFAFEF7B6FB41
:10458000082332A220211846FEF797FB32A22021F1
:104590003820FEF7CDFA082520210095BDF804202B
:1045A00002230846FEF764FB0095BDF806200223AF
:1045B00020216020FEF75CFBFEF798FB2046FCF70D
:1045C000F3FB30210CA20846FEF7B2FA2046FCF7B6
:1045D000EBFB082322A230210020FEF76EFB012016
:1045E0007CBD000004000020C7EBB0B4CAD6D6B82A
:1045F00000000000D6B8CEC6BFAACBF8000000006D
:104600004B310000BCFCCCEDBCD3D6B8CEC600000C
:104610004B330000BCFCC9BEB3FDD6B8CEC600000B
:104620004B350000BCFCD1E9D6A4D6B8CEC60000FC
:10463000D1E9D6A4CAA7B0DC00000000D6B8CEC627
:10464000D1E9D6A4B3C9B9A60000000049443A2074
:104650002020202020203A00B5C3B7D6000000005B
:10466000202020202020202020202020202020204A
:10467000000000004FF04070E1EE100A70470000AB
:10468000000000000000000000000000000000002A
:1046900000F80000000000000033300000000016A9
:1046A0000E00160E0000000000000000000040C0D8
:1046B0007840C0784000043F04043F0404000070C8
:1046C00088FC08300000001820FF211E0000F008C0
:1046D000F000E018000000211C031E211E0000F065
:1046E0000888700000001E212324192721100000D3
:1046F00000160E0000000000000000000000000096
:1047000000E018040200000000071820400000022A
:104710000418E0000000004020180700000040409E
:1047200080F0804040000202010F01020200000000
:1047300000F0000000000101011F01010100000064
:1047400000000000000000B0700000000000000049
:104750000000000000000001010101010101000052
:1047600000000000000000303000000000000000E9
:10477000000080601804006018060100000000E0DE
:1047800010080810E000000F102020100F0000108B
:1047900010F8000000000020203F202000000070E2
:1047A00008080888700000302824222130000030DA
:1047B0000888884830000018202020110E000000D2
:1047C000C02010F8000000070424243F240000F853
:1047D0000888880808000019212020110E0000E038
:1047E000108888180000000F112020110E000038DA
:1047F0000808C83808000000003F000000000070F2
:10480000880808887000001C222121221C0000E07A
:1048100010080810E0000000312222110F000000F3
:1048200000C0C000000000000030300000000000A8
:1048300000C0C0000000000080B070000000000058
:1048400080402010080000010204081020004040B1
:1048500040404040400004040404040404000008F4
:1048600010204080000000201008040201000070A9
:1048700048080808F0000000003036010000C03091
:10488000C828E810E0000718272423140B000000B4
:10489000C038E0000000203C23020227382008F83E
:1048A000888888700000203F202020110E00C03032
:1048B000080808083800071820202010080008F809
:1048C00008080810E000203F202020100F0008F802
:1048D0008888E8081000203F20202320180008F8CE
:1048E0008888E8081000203F200003000000C03046
:1048F00008080838000007182020221E020008F8C7
:1049000008000008F808203F210101213F2000088D
:1049100008F8080800000020203F202000000000C8
:104920000808F8080800C08080807F00000008F8B0
:1049300088C028180800203F20012638200008F8E9
:10494000080000000000203F20202020300008F850
:10495000F800F8F80800203F003F003F200008F86A
:1049600030C00008F808203F200007183F00E01082
:1049700008080810E0000F10202020100F0008F891
:1049800008080808F000203F210101010000E010A4
:1049900008080810E0000F18242438504F0008F8C9
:1049A000888888887000203F2000030C3020007029
:1049B0008808080838000038202121221C00180827
:1049C00008F8080818000000203F2000000008F840
:1049D00008000008F808001F202020201F00087889
:1049E000880000C83808000007380E010000F808E9
:1049F00000F80008F800033C0700073C0300081813
:104A000068808068180820302C03032C3020083878
:104A1000C800C83808000000203F2000000010082F
:104A20000808C83808002038262120201800000077
:104A300000FE020202000000007F40404000000C27
:104A400030C000000000000000010638C000000275
:104A50000202FE000000004040407F0000000020F5
:104A600010080408102000000000000000000000F2
:104A70000000000000008080808080808080000234
:104A8000040800000000000000000000000000001A
:104A90008080808000000019242222223F2008F814
:104AA000008080000000003F112020110E00000057
:104AB000008080800000000E1120202011000000E6
:104AC00000808088F800000E112020103F20000098
:104AD000808080800000001F22222222130000809C
:104AE00080F0888888180020203F202000000000E7
:104AF000808080808000006B94949493600008F81C
:104B0000008080800000203F210000203F200080A6
:104B10009898000000000020203F202000000000A6
:104B200000809898000000C08080807F000008F816
:104B3000000080808000203F24022D3020000008EB
:104B400008F8000000000020203F202000008080A6
:104B5000808080808000203F20003F20003F008038
:104B600080008080000000203F2100203F200000C6
:104B7000808080800000001F202020201F00808077
:104B800000808000000080FFA12020110E000000A6
:104B9000008080808000000E112020A0FF80808097
:104BA00080008080800020203F2120000100000044
:104BB0008080808080000033242424241900008019
:104BC00080E0808000000000001F20200000808026
:104BD000000000808000001F202020103F208080E7
:104BE00080000080808000010E3008060100808077
:104BF0000080008080800F300C030C300F0000809C
:104C00008000808080000020312E0E3120008080C6
:104C100080000080808080818E70180601000080F6
:104C20008080808080000021302C22213000000014
:104C30000000807C020200000000003F40400000B5
:104C40000000FF00000000000000FF000000000264
:104C5000027C800000000040403F00000000008017
:104C600040408000008000000000000101000000C2
:104C7000000000000000002F0000000007000700F7
:104C800000147F147F1400242A7F2A1200231308A3
:104C90006462003649552250000000070000000001
:104CA0001C224100000041221C000014083E081490
:104CB0000008083E0808000000A06000000808087E
:104CC0000808000060600000002010080402003E98
:104CD0005149453E0000427F400000426151494633
:104CE000002141454B31001814127F100027454523
:104CF0004539003C4A494930000171090503003635
:104D00004949493600064949291E00003636000047
:104D1000000056360000000814224100001414144C
:104D20001414000041221408000201510906003E3B
:104D30004955592E007C1211127C007F4949493691
:104D4000003E41414122007F4141221C007F4949F0
:104D50004941007F09090901003E4149497A007F24
:104D60000808087F0000417F4100002040413F01CA
:104D7000007F08142241007F40404040007F020C29
:104D8000027F007F0408107F003E4141413E007FCA
:104D900009090906003E4151215E007F0919294693
:104DA0000046494949310001017F0101003F40406F
:104DB000403F001F2040201F003F4038403F00631D
:104DC000140814630007087008070061514945433F
:104DD00000007F4141000002040810200000414112
:104DE0007F000004020102040040404040400000F7
:104DF00001020400002054545478007F4844443891
:104E000000384444442000384444487F0038545417
:104E1000541800087E0901020018A4A4A47C007F95
:104E2000080404780000447D4000004080847D0038
:104E3000007F102844000000417F4000007C0418DF
:104E40000478007C0804047800384444443800FCAA
:104E5000242424180018242418FC007C08040408C6
:104E600000485454542000043F444020003C40403B
:104E7000207C001C2040201C003C4030403C004472
:104E800028102844001CA0A0A07C004464544C447A
:104E90000000087F41000000007F00000000417F0B
:104EA0000800000804081008A3AC0000000000007F
:104EB0000000000000000000000000000058380062
:104EC0000000000000000000000000A1A30000009E
:104ED00000000000000000000000000000000000D2
:104EE0001824241800000000000000000000C4E3A3
:104EF00000008060F8074020180F08C8080828182C
:104F000000010000FF00100C0340807F0001061824
:104F100000BAC3001010F01F10F000808282E292ED
:104F20008A868000402215081661000040807F00BC
:104F300000000000CAC000202020FE2020FF20200A
:104F400020FF20202020000000007F4040474444F4
:104F500044474040400000BDE700000000FE929240
:104F600092FE929292FE0000000008080484621EE5
:104F7000010001FE020404080800D6B80010101059
:104F8000FF1090003F48484444444270000444826B
:104F90007F010000FF4949494949FF0000CEC60092
:104FA0002030AC63100808F8090E08F80808000063
:104FB000226722129280402116081621408080002C
:104FC000C4A3001010D0FF9014E4AFA4A4A4AFE4D5
:104FD000040000040300FF00894B2A1A0E1A2A4B12
:104FE000888000BFE900202020FF2020080808FF5B
:104FF000080808F800001030100F884821110D0330
:105000000D1121418100B2E2001060028C00FE020D
:10501000F202FE00F800FF000004047E0180473029
:105020000F10270047807F0000CAD400404042CCC8
:10503000009090909090FF10111610000000003F1B
:105040001028603F1010010E3040F000B3CC002457
:1050500024A4FE2322003E22222222223E00000817
:105060000601FF0106404949497F4949494100D0AD
:10507000F2000000FC040404141556945434140483
:10508000040040300F0001010141817F0101010551
:105090000300BCFC004030EF242480E49C105454F6
:1050A000FF547C100001017F2151261827444545FB
:1050B0005F45454400CCED001060028C0010925218
:1050C000321E32529212100004047E010021184058
:1050D000807F083004093100BCD300101010FF108D
:1050E00010F00000F8080808F800008040300F4079
:1050F000807F00007F2020207F0000C9BE0080FE4E
:105100008282FE80FE8282FE8000F800FF00403F27
:105110000020BF403F40807F00004F807F00B3FDF4
:105120000000FE225A8620102824E3242810202084
:105130000000FF040827110D41817F01050931009E
:1051400000D1E90002FA8282FE804020504C434C9C
:105150005020400008184884443F404458414E6065
:1051600058474000D6A400404042CC000004C4048C
:1051700004FC04040404000000003F1048407F4089
:10518000407F4141414000C7EB004042CC00004419
:105190005454547F54545444400000007F20100065
:1051A000FF15151555957F000000B0B400101010C4
:1051B000FF9020988888E98E8888A898000242810C
:1051C0007F000080844B28102847800000CAD6004A
:1051D00000002424242424FC222222232200000074
:1051E000020202020242827F020202020202020064
:1051F000D5FD00000202C2020202FE828282828289
:105200000200004040407F4040407F4040404040DE
:10521000404000B3A300201808EAACA8A8AFA8A893
:10522000ACEA0828180000003E02020202FF020257
:1052300012221E000000D4D9000202F29292929231
:10524000FE92929292F20202000404FF040404040B
:1052500007040444847F040400D2BB008080808063
:1052600080808080808080808080800000000000BE
:10527000000000000000000000000000B4CE0000AC
:10528000020C80608040300FC80808281800000217
:10529000027E01804020180601061820408000B6DA
:1052A000D4000008488808C83800901010FF10107B
:1052B00010000020100C030418000043807F000041
:1052C0000000B1C8000000FE4040404000FF8040A8
:1052D000201008000000007F20201010003F4040F8
:1052E0004040407800C1BD0002E2222222FE22227C
:1052F00022FE222222E2020000FF00080601160818
:105300000601024C807F0000B3C9000000F88888C5
:1053100088880808FF08090AC8080080601F001074
:10532000201F80402116182641F800B9A600080861
:1053300008F80808081010FF101010F000001030D6
:10534000101F088848300E014080403F0000CAA767
:10535000000040301E101010FF1010101010000040
:105360000081814121110D0301030D112141818132
:1053700000B0DC0000FE02FA02FE4020D817101038
:10538000F01010008047300F10678040211608167B
:1053900021408000C9FA008040301E101010FF101C
:1053A00010101010100000404042424242427F4222
:1053B00042424242404000B0E5001010D0FF901041
:1053C00000FC24E4242223E20000040300FF008305
:1053D000601F8041261826418000BCF50000020CA9
:1053E000C000F80848484808FF08098A0002027F00
:1053F00080403F001E925E20173846F100B1A300A6
:10540000008060F807003E2222E222223E000000D7
:10541000010000FF2011090503FF03050911200009
:10542000B4E600040484E41C0724242424A4642493
:10543000040400020100FF00020242827F02020215
:10544000020200C2BC00808082929292929292925A
:1054500092FE80808000404022241048807F040813
:10546000182422404000C8EB00000000000001E2C8
:105470001CE000000000000000804020100C030031
:105480000000030C3040808000B5C300001088C4C9
:105490003300BEAAAAAAAAAABE800000020100FF89
:1054A00000020A120242827F02020200B7D6008086
:1054B0004020908886808080838C1020408000006F
:1054C0008040201807004080403F0000000000C8D6
:1054D000B7000484E45C44C42010E82724E4342C9E
:1054E000E00002017F10103F80601F09093F4989D9
:1054F0007F00C8CF00404042CC0000000000FF0009
:1055000000000000000000003F904820180700073E
:105510001820408000B7B500404042CC0000FC2479
:10552000A4242222A36200000040201F20584750DC
:105530004845424548504000BBD8000000FE0202EA
:10554000F2121212F20202FE00000000007F202080
:10555000272424242720207F000000C7E5001060B6
:10556000028C00445454547F545454444000040466
:105570007E010000FF15151555957F000000BFD571
:1055800000100C4424140405060404142444140CD0
:1055900000004040414141417F4141414140400084
:1055A00000BFE2000000FC2424A4643DA6242424BF
:1055B0002424040040300F1013121212FF12121292
:1055C00012101000CAE40088681FC80810C854529E
:1055D000D1129408D01000091909FF0500FF12929A
:1055E000FF005F807F0000C3DC00108C4404E404F3
:1055F00095A64424148444940C0002027A41414349
:10560000427E42424243F8000000C2EB000484E4C0
:105610005C44C40002F2828282FE80800002017F2C
:1056200010103F00080808084888403F00C3C50024
:1056300000F80106000002020202020202FE00005F
:1056400000FF00000000000000000040807F00001C
:10565000D7B40000083000FF20202020FF202022A7
:105660002C200004040201FF8040300E01061820A7
:10567000408000CCAC00000484844424548F142463
:10568000448484040000413900003C4040424C40C6
:10569000407004093100D5FD00000202C20202027E
:1056A000FE82828282820200004040407F40404071
:1056B0007F4040404040404000C8B7000484E45C64
:1056C00044C42010E82724E4342CE00002017F10B9
:1056D000103F80601F09093F49897F00B4ED0040F9
:1056E00030EF246448487F4848487F4848400001DC
:1056F000017F211100FF4949494949FF000000CEBF
:10570000F3004042CC0000809E92929292929E8042
:10571000000000007F2094844424140F1424448447
:105720008400B9DC00886423A2A6AAA2BAA4A3A21A
:10573000262AA26200000000FF4A4A4A4A4A4A4B0F
:10574000F800000000C0ED00048484FC848400FEA6
:105750009292FE9292FE00002060201F10104044A2
:1057600044447F4444444000D4B1000000C05E5231
:105770005252525252525EC000000080808F404010
:1057800020100E101020204F800000D0C200404496
:105790005465C664544400FC4444C4424000201292
:1057A0004A827F020A92601F0000FF000000D4D9E5
:1057B000000202F292929292FE92929292F202026F
:1057C000000404FF0404040407040444847F040464
:1057D00000B2BB0000020202028242F20E428202CA
:1057E0000202000010080402010000FF0000000196
:1057F000020C0000CDAC000000FE021292929292C8
:1058000092921202FE00000000FF00001F0808082C
:10581000081F40807F0000C9E800404042CC0040A3
:10582000A09E8282829EA02020000000003F9088DF
:1058300040432C10284641808000D6C30000171535
:10584000D55557557D555755D51517000040404043
:105850007F555555555555557F40404000BFAA00CE
:1058600080828282FE8282828282FE8282828000A6
:10587000008040300F0000000000FF00000000002A
:10588000CBF80020102CE7242400E22C20BF202895
:10589000E600000101017F2111804F20100F102030
:1058A0004F8000D1A100404042CC00504EC8487FFC
:1058B000C848484000000040201F20504C43404052
:1058C0004F50505C4000D4F1001010FF1000828651
:1058D0004A52A2524A8680800042827F0100101202
:1058E0001212FF121212100000B7BD0008080808BB
:1058F00008F8898E88888888080808000080402079
:10590000180700004080403F00000000CABD0010A2
:105910001090909090901010FF1010111610000031
:105920002060203F10101000030C102040F800BF32
:10593000A800404040404040FF4444444444444068
:105940004000000000000000FF00000204081000FA
:105950000000B9D80000001011161010F01010143B
:1059600013100000008181414121110D030D11210F
:105970004141818100000000FF0101013109090955
:1059800009897101010101FFFF808080808080967C
:1059900081808080808080FF000000000000000087
:1059A00000000000000000000000000000000000F7
:1059B00000000000000000000000000000000000E7
:1059C0000000000000000000000000000000008057
:1059D0004020101010204080000000000000000057
:1059E00000000000000000000000000000000000B7
:1059F000008080E0988681808080808080808080A8
:105A0000818698E080800000000000000000000017
:105A1000000000000000000000FFFFFFFFFFFFFF8D
:105A2000FFDFFFFFFFFF6FBFDFFF3F5F25FF0000CE
:105A30000000000000000000000000000000000066
:105A400000FFFFFFFFFF7F2F3FDF9D7FE6130B0669
:105A50000600020000FF000000000000000000003F
:105A60000000000000000000001F1F1F1D181A1A70
:105A7000191B18181818181819181818181F0000CA
:105A80000000000000000000000000000000000016
:105A90000000000000000000000000000000000006
:105AA00000000000000000000000000000000000F6
:105AB00000000000000000000000000000000000E6
:105AC00000000000000000000000000000000000D6
:105AD00000000000000000000000000000000000C6
