:020000040800F2
:100000005812002041020008352F00089D260008E4
:10001000E92E000845080008293700080000000004
:100020000000000000000000000000001B3000087D
:10003000950A000800000000372F00081D31000855
:100040005B0200085B0200085B0200085B0200081C
:100050005B0200085B0200085B0200085B0200080C
:100060005B0200085B0200085B0200085B020008FC
:100070005B0200085B0200085B0200085B020008EC
:100080005B0200085B0200085B0200080000000041
:100090000000000000000000000000005B020008FB
:1000A0005B0200085B0200085B0200085B020008BC
:1000B000C13100085B0200085B0200085B02000817
:1000C0005B0200085B0200085B0200085B0200089C
:1000D0005B020008113700081D370008000000000F
:1000E000E90A00085B0200085B020008000000004B
:1000F0000000000000000000000000005B0200089B
:10010000000000005B0200085B0200085B020008C0
:1001100000000000000000000000000000000000DF
:10012000E50900085B0200085B0200085B020008AA
:100130005B0200080000000000000000000000005A
:100140000000000000000000000000005B0200084A
:100150005B0200085B0200085B0200085B0200080B
:100160005B0200085B0200080000000000000000C5
:10017000000000000000000000000000000000007F
:10018000000000005B02000800000000000000000A
:100190005B0200085B02000800F002F800F041F882
:1001A0000AA090E8000C82448344AAF10107DA45D2
:1001B00001D100F036F8AFF2090EBAE80F0013F0E3
:1001C000010F18BFFB1A43F001031847183C000049
:1001D000383C0000103A24BF78C878C1FAD85207DA
:1001E00024BF30C830C144BF04680C6070470000B1
:1001F0000023002400250026103A28BF78C1FBD830
:10020000520728BF30C148BF0B607047642900F017
:10021000F980002070471FB503F042FD1FBD10B5E7
:1002200010BD00F0FEF91146FFF7F5FF03F03CFBAF
:1002300000F01CFA03B4FFF7F2FF03BC00F020FA51
:100240000948804709480047FEE7FEE7FEE7FEE76A
:10025000FEE7FEE7FEE7FEE7FEE7FEE704480549A6
:10026000054A064B70470000B131000899010008AB
:10027000580C002058120020580E0020580E002064
:1002800053EA020C00F069802DE9F04B4FF00006B4
:10029000002B1FBFB3FA83F503FA05F424FA05F621
:1002A0005E4012BF1643B2FA82F502FA05F4C5F1B8
:1002B00020051EBF22FA05FC44EA0C04203556EA4C
:1002C000044C4FEA144418BF641C4FF000084FF070
:1002D0000009904271EB030C39D3002919BFB1FA20
:1002E00081F701FA07F6B0FA80F700FA07F6C7F1CE
:1002F00020071EBF20FA07FC46EA0C062037B6FB93
:10030000F4FCA7EB0507103F07F01F0BCBF120060D
:100310000CFA0BFB2CFA06F644BFB3460026202F3E
:10032000A4BF5E464FF0000B5BEA060C08BF4FF01F
:10033000010B19EB0B09ABFB027C48EB0608C01B59
:1003400006FB02CC0BFB03CC71EB0C01C1E70B46A7
:10035000024641464846BDE8F08B13B54FF0000019
:100360004FF00001AFF30080BDE81C407047000073
:100370000FB41CB5084B06AA7B446946009005984B
:1003800000F037F904460020694600F045F92046A0
:100390001CBC5DF814FB00009D0200002DE9F0413B
:1003A0000E460446002020622046E168884730B3AC
:1003B000252805D0D4E901219047206A401CF2E7A6
:1003C000E168204600278847050018D0A5F14100C4
:1003D000192802D820354FF40067324629462046B6
:1003E0002760FFF713FF40B1012804D0F61D26F067
:1003F00007060836D8E7361DD6E72846DAE7206A2A
:10040000BDE8F0812DE9F041064600241068752909
:10041000314616A510D0AFF30080002802DA404222
:1004200013A507E031688A0701D512A502E0490744
:1004300004D511A5012401E0AFF3008000210A22B8
:1004400006F1240709E0B0FBF2FCB0FBF2F302FB7B
:100450001C00303078541846491C0028F3D123463C
:100460002A463046BDE8F04100F064B800000000C4
:100470002D0000002B0000002000000010B5203AE5
:10048000C0F00B80B1E81850203AA0E81850B1E84D
:100490001850A0E81850BFF4F5AF5FEA027C24BF03
:1004A000B1E81850A0E8185044BF18C918C0BDE8FA
:1004B00010405FEA827C24BF51F8043B40F8043BC3
:1004C00008BF7047D20728BF31F8023B48BF11F878
:1004D000012B28BF20F8023B48BF00F8012B7047D2
:1004E0004FF0000200B5134694469646203922BFCD
:1004F000A0E80C50A0E80C50B1F12001BFF4F7AF18
:10050000090728BFA0E80C5048BF0CC05DF804EBF9
:10051000890028BF40F8042B08BF704748BF20F867
:10052000022B11F0804F18BF00F8012B7047704765
:10053000704770472DE9F0470D46994692460446AC
:1005400000F124080168880604D5E06921F0100153
:10055000216000E00120A84201DD471B00E00027E8
:10056000A1697A1902EB0900081AA0612078C00677
:1005700002D42046AFF30080002608E0D4E9012130
:100580001AF806009047206A401C761C20624E45EF
:10059000F4DB2078C0060AD52046AFF3008006E0E1
:1005A000D4E9012130209047206A401C2062381E87
:1005B000A7F10107F4DC07E0D4E9012118F80500F0
:1005C0009047206A401C2062281EA5F10105F3DC3B
:1005D0002046AFF300802078000602D50220BDE857
:1005E000F0870120FBE7000001694A1C02610878DE
:1005F000704700B58FB0CDE9013100210591054963
:100600007944CDE9031011466846FFF7C7FE0FB0E5
:1006100000BD0000E5FFFFFF0A6802F8010B0A6059
:100620007047754600F028F8AE4605006946534607
:1006300020F00700854618B020B5FFF70FFEBDE893
:1006400020404FF000064FF000074FF000084FF039
:10065000000B21F00701AC46ACE8C009ACE8C009CA
:10066000ACE8C009ACE8C0098D4670470446AFF35A
:1006700000802046FFF7DEFD00487047F40B0020A5
:1006800001491820ABBEFEE726000200704710B5F6
:100690000146806B026C12F0500F05D0026CD2063E
:1006A00026D500F0E7FA10BD016C41F40071016439
:1006B00001688A6812F0405F17D1027EAAB9CA6A3F
:1006C00012F4700F02D08A6852050ED44A6822F0E4
:1006D00020024A60016C21F480710164016CC9043C
:1006E00003D4016C41F00101016400F0C1FA10BDB6
:1006F000806BC26CBDE810400846104710B5806B97
:1007000040210164416C41F00401416400F0B2FAFF
:1007100010BD10B5806B00F0ACFA10BD464910B5A5
:100720004A6822F440324A604A6843681A434A6081
:1007300001684A6822F480724A6001684A68036965
:1007400042EA03224A6001684A6822F040724A6025
:1007500001684A6883681A434A6001688A6822F41B
:1007600000628A6001688A68C3681A438A60816A85
:100770006FF07062D14201688A6822F070628A600C
:1007800001688A680CD0836A1A438A6001688A68A3
:1007900022F040528A6001688A68C36A1A4301E005
:1007A00022F040528A6001688A6822F002028A6060
:1007B00001688A68037E42EA43028A6090F820104A
:1007C000002901684A680FD042F400624A6001685B
:1007D0004A6822F460424A6001684A68174C436ADA
:1007E00004EB43331A4301E022F400624A600168DB
:1007F000CA6A22F47002CA620168CA6A838B104C0A
:1008000004EB03531A43CA6201688A6822F4007237
:100810008A6001688A6890F8303042EA43228A6030
:1008200001688A6822F480628A6001688A68406987
:1008300042EA8020886010BD0023014000E0FFFFF5
:100840000000F0FFFEE7000000B585B00120009039
:10085000002001900290022003906946024800F0B7
:1008600041FD05B000BD0000000002400E4810B57B
:10087000026886B0002142F00102026000680B4C61
:1008800000F00100059001200090CDE90101022057
:1008900003906946204600F025FD012211462046BE
:1008A00000F015FE06B010BD3038024000000240D6
:1008B00070B5282000F0FAF80B4D0121284600F011
:1008C00001FE10B10024204670BD012401212846FC
:1008D00000F0F8FD0028F9D00121284600F0F2FDD3
:1008E0000028F9D1EFE70000000002402DE9F041B7
:1008F0000024144E254680270121304600F0E2FDF9
:100900000028F9D10121304600F0DCFD0028F9D0A3
:10091000282000F0CBF80121304600F0D3FD01285B
:1009200002D127FA05F004430121304600F0CAFD48
:100930000028F9D16D1CEDB2082DDDD32046BDE8AD
:10094000F0810000000002402DE9F0471D461646E8
:100950000F468046FFF7CAFF3070FFF7C7FF2870C9
:10096000FFF7C4FF88F80000FFF7C0FF3870FFF7FB
:10097000BDFFDFF8309004460121484600F0A2FD9B
:100980000028F9D098F8000039782A78084431789E
:1009900011440844A04202D10120BDE8F0870020A4
:1009A000FBE700000000024010B5FFF75FFF0A20E0
:1009B00000F07CF80A4C00220121204600F087FD5F
:1009C000142000F068F801221146204600F07FFD57
:1009D0001E2000F06BF8BDE81040FFF735BF0000A7
:1009E00000000240014800F0BBBA0000740A002079
:1009F00001681823CAB2103AB2FBF3F2054B6FF349
:100A00000901032A9B5CC36500D9091D816508465D
:100A100070470000C43D000810B5014600208B69F6
:100A20008A6A4FF0C07453B1B3F5005F15D072B14C
:100A3000012A0CD0022A0AD0032A09D104E01AB1F3
:100A4000012A06D0022A03D1C96AC90100D50120B2
:100A500010BDC96AA142FAD010BD002AF7D0012A00
:100A6000F2D0022AF3D0032AF3D010BD30B50468C7
:100A7000256825F480252560046863608368402B21
:100A8000036803D099600068C26030BD9A60006856
:100A9000C16030BD704770B504464FF47A7502E00E
:100AA000284600F003F8641EFAD270BD38B54FF640
:100AB000FA74201AADF80000BDF80000094D29684D
:100AC0004862284601F0F4F8286802E0416AADF86F
:100AD0000010BDF80010A142F8D3BDE8384001482D
:100AE00001F018B9D40A002010B54FF4806000F06E
:100AF000EDFB4FF4005000F0E9FBBDE810404FF46F
:100B0000804000F0E3BB72B6FEE7000078B5002439
:100B1000009490F83C20012A19D0012280F83C2052
:100B20000A6807230568092A13D9EE680A3A02EB16
:100B3000420293409E43EE600B788A680A3B03EBC7
:100B400043039A400368DD682A43DA6010E002201C
:100B500078BD2E6902EB420293409E432E610B78D2
:100B60008A6803EB43039A4003681D692A431A61AC
:100B70004A681F23072A13D205686E6B521E02EBC8
:100B8000820293409E436E630A8893B20A79521E92
:100B900002EB820293400268556B2B43536327E0BC
:100BA00005680D2A12D22E6BD21F02EB82029340EF
:100BB0009E432E630B790A88DB1F92B203EB8303FB
:100BC0009A4003681D6B2A431A6311E0EE6A0D3ADE
:100BD00002EB820293409E43EE620B790A880D3B42
:100BE00092B203EB83039A400368DD6A2A43DA6218
:100BF0001B4B0568194A9D420AD10D68122D07D179
:100C0000556825F400055560556845F48005556024
:100C100005689D421DD1134D0B68AB4201D0112BCD
:100C200017D1536823F480035360536843F40003DF
:100C300053600968A9420CD10B490C4A0968B1FB01
:100C4000F2F101EB8101490000E0491E0091002909
:100C5000FBD180F83C40002078BD0000002301401B
:100C600000200140120000102400002040420F002C
:100C700070477047704770B504004FF0000503D00F
:100C8000206C002610B107E0012070BD204600F066
:100C90001DF8666484F83C60206CC00610D4206C9B
:100CA00020F4885040F0020020642046FFF736FD13
:100CB0006664206C20F0020040F00100206400E037
:100CC000012584F83C60284670BD000070B586B0F0
:100CD000064614216846FFF703FC24493068884221
:100CE00042D123480025016841F480710160006809
:100CF0001F4900F4807014390590086840F0010025
:100D00000860086800F001000590086840F00200E3
:100D100008600868032400F00200059002208DE8B6
:100D200031006946134800F0DDFA00946946124824
:100D3000CDE9014500F0D6FA114C1048C4E9000590
:100D40000015A560C4E90350400060618000A06107
:100D50004011C4E907052046656200F0D1F908B1E9
:100D6000FFF7D1FEB463A66306B070BD002001405A
:100D70004438024000000240000402401064024077
:100D8000740A0020F8B5044600200E46009094F83E
:100D90003C10012907D0012184F83C1021688B68A0
:100DA000DB0702D011E00220F8BD8B6843F001039D
:100DB0008B603649364B0968B1FBF3F101EB410119
:100DC00000E0491E00910029FBD121688B68DB05FA
:100DD00003D58B6823F480738B6021688B68DB07F5
:100DE00049D0236C40F20165AB4343F48073236424
:100DF0004968490505D5216C21F4005141F4805121
:100E00002164216CC90404D5616C21F00601616480
:100E100000E0606484F83C00A16B1F481D4DC8636E
:100E2000A16B1E480864A16B1D48C86421686FF05F
:100E3000220008602068416841F0806141602068BC
:100E4000816841F4807181602168134632464C31DB
:100E5000A06B00F0BFF96868C006206802D0114995
:100E6000884210D1816811F0405F0CD1816841F057
:100E70008041816007E0206C40F010002064606CCD
:100E800040F0010060640020F8BD00002400002054
:100E900040420F00002301408F060008130700089E
:100EA000FD060008002001402DE9F0410446876D51
:100EB00000F012FB064694F835000025022806D003
:100EC0008020606584F834500120BDE8F0812068FE
:100ED000016821F0160101602068416921F080015C
:100EE0004161206C08B9A06C20B12068016821F034
:100EF000080101602068016821F0010101600CE037
:100F000000F0EAFA801B052807D92020606503203D
:100F100084F8350084F83450D7E720680068C007AB
:100F2000EED194F85C103F208840B860012084F82E
:100F3000350084F834500020C7E790F835100229B6
:100F400003D08021416501207047052180F83510CC
:100F50000068016821F00101016000207047000075
:100F60002DE9F84304464FF00009CDF8009063489E
:100F70004FF41651A56D0068B0FBF1F72E6894F898
:100F80005C10082000FA01F131420FD021680A6894
:100F900052070BD50A6822F004020A6094F85C102C
:100FA0008840A860606D40F00100606594F85C10B6
:100FB0004FF0010808FA01F0304208D02168496971
:100FC000090604D5A860606D40F00200606594F8E1
:100FD0005C1004208840304208D0216809688907E5
:100FE00004D5A860606D40F00400606594F85C1062
:100FF00010208840304218D021680968090714D5AC
:10100000A86020680168490304D50068000308D57A
:10101000A16C07E00168C90503D4016821F008014B
:101020000160216C09B12046884794F85C102020AB
:101030008840304231D021680968C9062DD5A860A2
:1010400094F8350005282068016806D0490347D583
:10105000006800031DD4616C1CE021F016010160E2
:101060002068416921F080014161206C08B9A06CC1
:1010700020B12068016821F00801016094F85C103B
:101080003F208840A86084F8358084F83490216D32
:101090001FE0E16B09B120468847606D00282BD026
:1010A000606DC00714D0052084F835002068016801
:1010B00021F0010101600098401C0090B84203D863
:1010C00020680068C007F6D184F8358084F8349031
:1010D000E16C002910D001B02046BDE8F04308477C
:1010E0000168C905D5D4016821F01001016084F8B8
:1010F000358084F83490CCE7BDE8F88324000020E4
:101100002DE9F041044600F0E7F906465CB1022003
:1011100084F83500002584F834502068016821F0F7
:10112000010101600DE00120BDE8F08100F0D4F97B
:10113000801B052805D920206065032084F8350030
:10114000F2E720680068C007F0D1226811682048E3
:101150000140D4E901031843D4E90336334318436B
:1011600063691843A3691843E3691843236A184362
:101170000843616A042903D1D4E90B1319430843D6
:10118000106020684069666A20F0070130460E430F
:10119000012704280CD1A06A0643E06A40B120462A
:1011A000FFF73AFC20B14020606584F83570BAE75B
:1011B000206846612046FFF71BFC94F85C203F2125
:1011C00091408160656584F835700020ACE70000CF
:1011D0003F8010F02DE9F0410446866D90F8340010
:1011E000002501280DD0012084F8340094F83570D2
:1011F0000020012F07D084F8340002252846BDE8DE
:10120000F0810220FBE7022784F8357060652046F4
:10121000FFF72CFC94F85C103F208840B0602068F9
:10122000016841F016010160206C20B1206801685E
:1012300041F0080101602068016841F0010101608E
:10124000DCE7000070B50446B0F5806F08D04FF6BB
:10125000FF75B4F5005F06D0B4F5804F10D00CE0F8
:1012600001F06AFE09E012A11248FFF781F882B28C
:101270002B461049104801F097F91048046070BDE2
:101280000FA10C48FFF774F882B22B4609490A48AF
:1012900001F08AF9BFF34F8F0A4801680A4A01F446
:1012A000E06111430160BFF34F8F00BFFDE7000015
:1012B0003200000028000020640B0020143C014094
:1012C000330000000CED00E00400FA05044910B5FD
:1012D0000A68024202D00860FFF7B4FF10BD0000A8
:1012E000143C01402DE9F84FDFF8B8A10022012499
:1012F00003254FF00F090AF1040BAAF1040E00BFF9
:101300000B6804FA02F63340B34273D10F7907F049
:101310000307012F01D0022F16D187684FEA420838
:1013200005FA08FC27EA0C07D1F80CC00CFA08FCF7
:101330004CEA070CC0F808C04768B7430E79C6F3FB
:10134000001696403E4346600E79F643B6070DD030
:10135000C768560005FA06FC27EA0C07D1F808C052
:101360000CFA06FC4CEA070CC0F80CC00E7906F02B
:101370000306022E10D1D60800EB8608D8F82060AC
:1013800057074FEAD76C09FA0CF7BE430F6907FA03
:101390000CF73743C8F8207006684FEA420C05FA8C
:1013A0000CF7BE430F7907F0030707FA0CF7374332
:1013B00007604E6816F4403F6DD03B4E376847F4E7
:1013C00080473760366822F0030706F480460096AF
:1013D000364E07EB060CDCF8086897073F0F09FA52
:1013E00007F826EA0806DFF8C880404503D14FF029
:1013F00000081EE04FE0DFF8BC80404502D14FF00E
:10140000010816E0DFF8B080404502D14FF0020835
:101410000FE0DFF8A880404502D14FF0030808E054
:10142000DFF89C80404502D14FF0040801E04FF006
:10143000070808FA07F848EA0608CCF80888DAF836
:1014400000605746D1F804C09E435FEACC2C00D51B
:101450001E433E60DBF800605F46D1F804C09E4347
:101460005FEA8C2C00D51E433E60DEF800607746B4
:10147000D1F804C09E435FEA8C3C00D51E433E6019
:10148000084F083F3E68D1F804C09E435FEACC3C59
:1014900000D51E433E60521C102AFFF431AFBDE858
:1014A000F88F0000083C0140443802400030014001
:1014B000000002400004024000080240000C02400C
:1014C000001002400069084000D0012070470AB1B6
:1014D000816170470904FBE701488068704700009C
:1014E000180000200248816802781144816070472A
:1014F000180000200B4810B5016841F4007101602C
:10150000016841F480610160016841F4807101600B
:10151000032000F06FF8002000F006F800F024F837
:10152000002010BD003C024070B50D4D04464FF444
:101530007A712878B1FBF0F00A490968B1FBF0F044
:1015400000F00CFB48B9102C07D200222146501E97
:1015500000F030F800206C6070BD012070BD00000C
:1015600018000020240000200A4808B5016841F452
:1015700080410160006800F4804000900548001F31
:10158000016841F080510160006800F080500090D7
:1015900008BD000044380240002809DB00F01F02AB
:1015A000012191404009800000F1E020C0F80011C5
:1015B00070470000F0B40E4B1B680C46C3F30223C7
:1015C000C3F10705042D00D90425191D072901D2EF
:1015D000002300E0DB1E012606FA05F1491E21402A
:1015E00099409E40761E16403143F0BC02F04CB943
:1015F0000CED00E0064900F0070208684FF6FF0313
:10160000184040EA0220034A104308607047000077
:101610000CED00E00000FA052DE9F0470E4605004C
:1016200065D0DFF81481D8F80000F7B200F00700A9
:10163000B04207D288F80070D8F8000000F0070028
:10164000B04254D128683D4C810712D5400703D5DC
:10165000206840F4E05020602878000703D5206817
:1016600040F4604020602068A96820F0F000084342
:1016700020602878C0072DD03049686808390128D3
:1016800012D0022813D0032811D009688907002935
:101690002DDA216821F0030101432160FFF71CFFCF
:1016A000814641F2883A0EE009688903EFE709684C
:1016B0008901ECE7FFF710FFA0EB0901514502D9C2
:1016C0000320BDE8F0872068696800F00C00B0EBEB
:1016D000810FEFD1D8F80010404601F00701B14268
:1016E00007D90770006800F00700B04201D0012060
:1016F000E7E72878400705D52068E96820F4E0503E
:10170000084320602878000706D52068296920F45E
:10171000604040EAC100206000F038F82168084AC3
:10172000C1F30311515CC8400649086006480068CF
:10173000FFF7FAFE0020C4E7003C024008380240F0
:10174000CC3D0008240000201C000020044805496E
:1017500000680968044AC1F38221515CC84070479F
:101760002400002008380240DC3D000804480549F8
:1017700000680968044AC1F34231515CC8407047AF
:101780002400002008380240DC3D0008154810B550
:10179000006810F00C02144813D01449042A0FD02A
:1017A000082A0ED10F4C241F2268236802F03F0242
:1017B0005B0207D52068C0F38810A0FB010106E09A
:1017C000084610BD2168C1F38811A1FB0001002368
:1017D000FEF756FD2168C1F30141491C4900B0FBE9
:1017E000F1F010BD083802400024F40040787D017B
:1017F0002DE9F84F04006ED02078DFF84C93C00735
:10180000A9F104054AD009F104000168C1F381017E
:10181000012908D00068C0F3810002280AD1D9F854
:101820000000400206D52868800337D5606800288C
:10183000E1D033E06068B0F5803F10D0B0F5A02F64
:10184000286810D020F480302860286820F4802098
:1018500028606068A8B1FFF73FFE06460DE02868E3
:1018600040F48030F4E740F480202860F7E700BFC0
:10187000FFF732FE801B642873D828688003F7D5F1
:101880000CE0FFF729FE064605E000BFFFF724FE47
:10189000801B6428F0D828688003F7D42078DFF80C
:1018A000AC8280074FF0000A3ED5A748001D0168B2
:1018B00011F00C0F08D00068C0F3810002280BD192
:1018C000D9F80000400207D42868800716D5E068E0
:1018D000012800D112E033E1E068B8B10120C8F876
:1018E0000000FFF7F9FD064605E000BFFFF7F4FD35
:1018F000801B0228C0D828688007F7D5286821698E
:1019000020F0F80040EAC10028600DE0C8F800A00F
:10191000FFF7E2FD064604E0FFF7DEFD801B02282C
:101920001FD828688007F7D42078000722D5864F73
:1019300087486169703771B101210160FFF7CCFD03
:10194000064604E0FFF7C8FD801B022809D8386866
:101950008007F7D50EE0C0F800A0FFF7BDFD0646F2
:1019600005E082E0FFF7B8FD801B02287DD83868CB
:101970008007F7D42078400768D5DFF8CCB100277E
:101980000BF13C0BDBF80000C0000BD4DBF80010BF
:1019900041F08051CBF80010DBF80000012700F087
:1019A000805000906B4E3068C00510D4306840F411
:1019B00080703060FFF790FD009005E0FFF78CFD30
:1019C0000099401A022850D83068C005F6D55E4EFE
:1019D000A0686C3601280FD00528306810D020F0A0
:1019E00001003060306820F004003060A068B8B1B9
:1019F000FFF772FD00900FE0306840F00100F4E75F
:101A000040F004003060F7E7FFF766FD0099411AE7
:101A100041F28830814266D830688007F4D50EE004
:101A2000FFF75AFD009007E0FFF756FD0099411AB5
:101A300041F28830814256D830688007F4D42FB103
:101A4000DBF8001021F08051CBF80010A069C8B37A
:101A50003D49091D0968C1F3810102294AD00228C4
:101A6000504607D0C8F8600000E03CE0FFF734FDC6
:101A700004463BE04746C8F86000FFF72DFD0646E8
:101A800005E000BFFFF728FD801B02282BD828683F
:101A90008001F7D4D4E907010843A16A2E4A490816
:101AA00002EB0141626A41EA8211084394F82C106A
:101AB00040EA0161C9F8001001203866FFF70CFD0B
:101AC000044606E03EE000BFFFF706FD001B0228CB
:101AD00009D828688001F7D534E000BFFFF7FCFC87
:101AE000001B022802D90320BDE8F88F2868800176
:101AF000F4D427E00128F7D0D9F80000E26900F417
:101B0000800191421CD1226A00F03F01914217D11D
:101B100047F6C071626A0140B1EB821F10D1A26A20
:101B20004FF0FF3300F4403103EB5202B1EB024FB0
:101B300006D194F82C1000F07060B0EB016F01D06A
:101B40000120D1E70020CFE70438024000004742DF
:101B5000800E4742007000400000FFFF10B5401E9D
:101B6000B0F1807F01D3012010BD4FF0E02460610F
:101B70000F21601701F088FE0020A061072020617E
:101B8000002010BD7047704770B590F83C20012AC6
:101B90002CD0012480F83C40022280F83D200368CC
:101BA0005A689D6822F070060A6832435A60104BEA
:101BB00002689A420ED0B2F1804F0BD00D4B9A4280
:101BC00008D00D4B9A4205D00C4B9A4202D00C4BD8
:101BD0009A4204D1496825F080031943916080F846
:101BE0003D40002180F83C10084670BD022070BDC9
:101BF000000001400004004000080040000C0040CC
:101C00000040014010B5040003D094F83D0010B12D
:101C100007E0012010BD002084F83C00204600F0C1
:101C20001FF8022084F83D00211D206801F0CEFA43
:101C3000012084F8460084F83E0084F83F0084F8D0
:101C4000400084F8410084F8420084F8430084F89E
:101C5000440084F8450084F83D00002010BD0000D9
:101C600008B501681048B1F1804F0BD00F4A91427E
:101C700007D1016841F002010160006800F0020034
:101C8000009008BD016841F0010101600068002278
:101C900000F00100009011461C20FFF78BFCBDE80E
:101CA00008401C20FFF778BC403802400004004088
:101CB00090F83D10012901D001207047022180F8E1
:101CC0003D1000680E4988420ED0B0F1804F0BD015
:101CD0000C49884208D00C49884205D00B498842FB
:101CE00002D00B49884204D1816801F0070106291E
:101CF00003D0016841F0010101600020704700003D
:101D0000000001400004004000080040000C0040BA
:101D10000040014001680A6A41F211131A4207D1DA
:101D20000A6A9B101A4203D10A6822F001020A6073
:101D3000012180F83D100020704770B5044690F8EE
:101D40003C000025012817D0012684F83C600220C1
:101D500084F83D002068826822F0770222F47F42F6
:101D600082600868502838D00DDC20284FD005DC70
:101D700090B3102811D14AE0022070BD302846D01F
:101D800040280AD13BE060282FD070280DD0B0F554
:101D9000805F03D0B0F5005F12D0012584F83D606C
:101DA000002084F83C00284670BDCB68D1E90121B1
:101DB000206801F06AFA2068816841F0770109E043
:101DC000CB68D1E90121206801F05FFA20688168C1
:101DD00041F480418160E1E719E0CA684968206800
:101DE00001F008FB5021206806E0CA6849682068B5
:101DF00001F011FB6021206801F051FACEE7CA68BA
:101E00004968206801F0F6FA40212068F4E722686A
:101E100001461046F0E770472DE9F041044600689E
:101E2000C66805694FF00007A90713D5B10711D59A
:101E3000F91E016101202077206880698007204613
:101E400002D0FFF7E8FF04E000F0A6F8204600F01B
:101E500038F92777680716D5700714D521686FF011
:101E600004000861022020772068806910F4407F18
:101E7000204602D0FFF7CFFF04E000F08DF82046A7
:101E800000F01FF92777280715D5300713D52168EB
:101E90006FF008000861042020772068C06980077F
:101EA000204602D0FFF7B7FF04E000F075F82046A7
:101EB00000F007F92777E80616D5F00614D5216853
:101EC0006FF010000861082020772068C06910F4C6
:101ED000407F204602D0FFF79EFF04E000F05CF850
:101EE000204600F0EEF82777E80708D0F00706D084
:101EF00021686FF001000861204600F03BF92806D8
:101F000008D5300606D521686FF0800008612046AC
:101F1000FFF738FE680608D5700606D521686FF011
:101F200040000861204600F026F9A8060AD5B00650
:101F300008D521686FF0200008612046BDE8F04117
:101F4000FFF721BEBDE8F08110B586B0044614212C
:101F50006846FEF7C5FA0D492068884214D10C483E
:101F60000021026842F001020260006800F00100F6
:101F70000590C02000900220CDE90101039004905B
:101F800069460448FFF7AEF906B010BD00040040F2
:101F90003038024000000240704770B5044690F8A7
:101FA0003C0000260D4601280FD0012084F83C009B
:101FB0006AB1042A1DD0082A2FD00C2A3FD001264E
:101FC000002084F83C00304670BD022070BD2068BF
:101FD00001F06EF92068816941F008018161206893
:101FE000816921F004018161206881692A691143B6
:101FF00011E0206801F084F92068816941F40061F2
:1020000081612068816921F4806181612068816932
:102010002A6941EA02218161D2E7206801F09CF936
:102020002068C16941F00801C1612068C16921F0DF
:102030000401C1612068C1692A69114311E0206867
:1020400001F0B6F92068C16941F40061C1612068FE
:10205000C16921F48061C1612068C1692A6941EACE
:102060000221C161ACE710B5040003D094F83D0033
:1020700010B107E0012010BD002084F83C0020468C
:1020800000F01EF8022084F83D00211D206801F0B8
:102090009DF8012084F8460084F83E0084F83F0053
:1020A00084F8400084F8410084F8420084F843003A
:1020B00084F8440084F8450084F83D00002010BDF9
:1020C0007047704710B50446022249B104290ED06A
:1020D000082913D094F84100012816D0012010BD22
:1020E00094F83E000128F9D184F83E200FE094F8DE
:1020F0003F000128F2D184F83F2008E094F8400026
:102100000128EBD184F8402001E084F8412001222D
:10211000206801F0ADF812492068884203D1426C72
:1021200042F400424264206888420ED0B0F1804FF1
:102130000BD00C49884208D00B49884205D00B4986
:10214000884202D00A49884204D1816801F007011F
:10215000062903D0016841F001010160002010BD93
:10216000000001400004004000080040000C004056
:10217000004001407047704770477047F8B50168EC
:1021800004460868CA684B6910F00F0F4FF000054D
:102190005AD003F0010602F49077374365D0C107A7
:1021A00005D0D10503D5616C41F00101616441079F
:1021B00005D5D90703D0616C41F002016164810744
:1021C00005D5D90703D0616C41F0040161640107B2
:1021D00007D502F02001314303D0616C41F00801C2
:1021E0006164616C00293BD0800604D5900602D55D
:1021F000204601F051F920684069616CC0F38010FD
:1022000001F00801014320462BD001F01EF920689F
:102210004069400621D52068143050E8001F21F0A5
:10222000400140E80012002AF5D1E06BA8B16E49E8
:102230000165E06BFEF781FE002811D0E06B016DB7
:1022400001B0BDE8F040084783060ED593060CD5D3
:102250002046BDE8F84001F01FB92046FFF78DFF8A
:10226000F8BDFFF78AFF6564F8BD266B2023012EB9
:102270007DD1C6067BD5D60679D50868486800901A
:1022800048694FF00206400641D5E16B0868406896
:102290000004000CE8D0A28D8242E5D9E085C8692F
:1022A000B0F5807F2DD020680C3050E8001F21F45D
:1022B000807140E80012002AF5D12168143151E8FC
:1022C000000F20F0010041E80002002AF5D120684B
:1022D000143050E8001F21F0400140E80012002AAD
:1022E000F5D184F84230256320680C3050E8001F97
:1022F00021F0100140E80012002AF5D1E06BFEF752
:10230000D3FD6663A08DE18D401A81B22AE0A08DD5
:10231000E18D401A81B2E08D0028A5D00029A3D01C
:1023200022680C3252E8000F20F4907042E8000757
:10233000002FF5D12068143050E8002F22F0010260
:1023400040E80027002FF5D184F84230256320684B
:102350000C3050E8002F22F0100240E80023002B40
:10236000F5D166632046FFF707FFF8BDFFE70506D6
:102370002BD5150629D594F841002128F5D1A06860
:10238000B0F5805F01D12069B0B1206A411C2162A3
:10239000216800784860E08C401E0004000CE08456
:1023A000E3D12068C16821F08001C1602068C16864
:1023B00041F04001C160D8E7206A0088C0F30800FE
:1023C0004860206A801C2062E5E74006CDD55006B3
:1023D000CBD5CA68204622F04002CA6084F841305A
:1023E00000F032F9C1E700003B34000870B504008A
:1023F00004D094F84100002510B106E0012070BD22
:1024000084F84050204600F023F8242084F841004E
:102410002068C16821F40051C160204601F09EF897
:102420002068016921F4904101612068416921F02F
:102430002A0141612068C16841F40051C1606564AE
:10244000202084F8410084F842006563002070BDBC
:10245000F0B587B0044614216846FEF741F82A4FCC
:102460002368002229490224032507262848BB4265
:1024700021D1264B14331F6847F010071F601B68DB
:1024800003F0100305930B6843F001030B60096828
:1024900002AB01F0010105916902CDE9001483E866
:1024A00064006946FEF71EFF002201212520FFF788
:1024B00081F8252023E0174FBB4222D1134B103364
:1024C0001F6847F400371F601B6803F4003305934F
:1024D0000B6843F001030B60096802AB01F00101D6
:1024E00005910C21CDE9001483E864006946FEF7EC
:1024F000F9FE002201212620FFF75CF82620FFF7D5
:102500004BF807B0F0BD0000001001403038024029
:10251000000002400044004090F84230202B01D0DF
:102520000220704721B11AB10023036301F09CB867
:102530000120704710B504460068124988420DD149
:1025400011480078312804D1012280210F48FEF77C
:10255000BEFF0A220C490E48FFF7DEFF0D49206836
:1025600088420DD10C480D49007808700C490120B3
:1025700002468860BDE8104007490A48FFF7CCBF13
:1025800010BD00000010014028010020000402409E
:10259000640B0020004400402C0600202C02002088
:1025A00004000020AC0B00202DE9F843044690F80D
:1025B0004100984616460D46202802D00220BDE86C
:1025C000F88385B17EB100206064212084F8410049
:1025D000FEF782FFA6848146E684A0682027B0F536
:1025E000805F02D003E00120E9E7206910B12E46A8
:1025F00000250EE000260CE08021204601F04FF877
:10260000A8B9C6B116F8010B21684860E08C401EDD
:10261000E084E08C4B464FF00002CDF800800028AB
:10262000EAD14FF04001204601F039F840B184F87A
:1026300041700320C3E735F8020BC0F30800E3E75D
:1026400084F841700020BAE77047000031B50024DB
:10265000B4F101059DF80000002809D02B460122A5
:1026600069460448FFF7A0FF641CE4B2032CF1D3D1
:1026700038BD0000AC0B002070B504464FF0FF35AC
:1026800006E02B46012221460348FFF78DFF641C1C
:1026900020780028F5D170BDAC0B0020FEE70000CB
:1026A0002DE9F041CAB04FF48C7226496846FDF717
:1026B000E5FE25A346AC0FCB84E80F0001260025DC
:1026C000E84600BF00F087F8C0B346A8415DC120CE
:1026D00000F0E4F90021C32000F0E0F90421082013
:1026E00000F0DCF90120FEF7D6F90021082000F007
:1026F000D5F90120FEF7CFF905EB8501002408EBA1
:102700008107395D31B1052000F0C8F9641CE4B2DD
:10271000142CF6D32146B92000F0C0F9FF21B220D5
:1027200000F0BCF90421372000F0B8F96D1CEDB2BF
:102730000E2DC7D34AB03046BDE8F081FFE7002632
:10274000F8E70000AC3C000800010203040506188D
:10275000191A1B1C1D24000010B54321352000F060
:102760009DF909211C2000F099F92021BD2000F0DD
:1027700095F90121082000F091F90520FEF78BF969
:102780000021082000F08AF90520FEF784F900F006
:1027900022F800281ED0FF21B22000F07FF9062188
:1027A000372000F07BF90520FEF775F90621372068
:1027B00000F074F90520FEF76EF90B211C2000F0E3
:1027C0006DF91021292000F069F90021BD2000F0E9
:1027D00065F9012010BD70B500252C46B22000F02F
:1027E000AFF8212808D01420FEF755F9641CE4B294
:1027F000052CF3D3284670BD0125FBE7C52000F06A
:102800009FB800F025BA00001A4910B508200870DA
:1028100000F032F80021BD2000F040F948211720D7
:1028200000F03CF90520FEF736F980213C2000F04D
:1028300035F907213E2000F031F9FF21382000F062
:102840002DF907213A2000F029F90021402000F05D
:1028500025F90821422000F021F90021442000F050
:102860001DF90821462000F019F9BDE810400520A7
:10287000FEF711B90000002010B5062000F060F846
:102880003521172000F00AF90520FEF704F906208B
:1028900000F056F80321892000F000F90520FEF72A
:1028A000FAF84321CF2000F0F9F80520FEF7F3F8FD
:1028B0000221CB2000F0F2F80B21112000F0EEF8FD
:1028C0001E484FF00001007840284FF01E0029D02C
:1028D00000F0E4F83F21192000F0E0F848211B2027
:1028E00000F0DCF81F211D2000F0D8F80520FEF7CD
:1028F000D2F80421CD2000F0D1F84C21172000F0AF
:10290000CDF80520FEF7C7F80021B92000F0C6F881
:102910004F21CF2000F0C2F8FF21BDE810406F200A
:1029200000F0BCB800F0BAF80F21192000F0B6F89A
:1029300018211B2000F0B2F82C21D4E70000002061
:102940002DE9F0410024DFF8F480074625460526EE
:10295000224640214046FEF7BAFD0120FEF7A6F8C8
:10296000300601D5012200E0002210214046FEF78A
:10297000AEFD0120FEF79AF8002208214046FEF73E
:10298000A6FD7006060E0120FEF790F80122082130
:102990004046FEF79CFD641CE4B2082CE0D3002600
:1029A0004446380601D5012200E0002210212046CD
:1029B000FEF78DFD0120FEF779F800220821204660
:1029C000FEF785FD7806070E0120FEF76FF801225D
:1029D00008212046FEF77BFD761CF6B2082EE0D3D8
:1029E0000120FEF763F800266806050E2021204628
:1029F000FEF768FD07460120FEF758F8002208217F
:102A00002046FEF764FD012F01D145F001050120AC
:102A1000FEF74CF8012208212046FEF758FD761CEF
:102A2000F6B2082EE0D30120FEF740F80122402143
:102A30002046FEF74CFD2846BDE8F0810004024028
:102A400010B5154C012204212046FEF740FD05205B
:102A5000FEF721F8002204212046FEF738FD05206C
:102A6000FEF719F8012204212046FEF730FD05206B
:102A7000FEF711F8002240212046FEF728FD052030
:102A8000FEF709F8012240212046FEF720FDBDE8AF
:102A900010400520FDF7FFBF000402402DE9F04182
:102AA000DFF8EC800E46074600240425224640212C
:102AB0004046FEF70CFD0120FDF7F8FF280601D582
:102AC000012200E0002210214046FEF700FD012017
:102AD000FDF7ECFF002208214046FEF7F8FC6806EF
:102AE000050E0120FDF7E2FF012208214046FEF716
:102AF000EEFC641CE4B2082CE0D300254446380602
:102B000001D5012200E0002210212046FEF7DFFC63
:102B10000120FDF7CBFF002208212046FEF7D7FC5D
:102B20007806070E0120FDF7C1FF0122082120468B
:102B3000FEF7CDFC6D1CEDB2082DE0D3002530066C
:102B400001D5012200E0002210212046FEF7BFFC43
:102B50000120FDF7ABFF002208212046FEF7B7FC5D
:102B60007006060E0120FDF7A1FF01220821204674
:102B7000FEF7ADFC6D1CEDB2082DE0D30120FDF792
:102B800095FF2046BDE8F04101224021FEF79FBCA1
:102B9000000402407FB5002120480091019102917C
:102BA0001D4A0391026001244FF400320461C0E920
:102BB0000121047680F82010194AC0E90A21032572
:102BC000C561C16080F830404461FEF754F808B137
:102BD000FDF799FF009469461048CDE90145FDF7DE
:102BE00095FF08B1FDF78FFF0820009002200190AB
:102BF00069460A48FDF78AFF08B1FDF784FF0920FE
:102C0000CDE9000569460548FDF780FF002801D0A1
:102C1000FDF779FF7FBD0000002001402C0A002055
:102C20000100000F094808B5016841F48001016006
:102C30000068002200F48000009011463820FEF762
:102C4000B9FCBDE808403820FEF7A6BC3038024089
:102C50002DE9F04387B014216846FDF741FC3F4859
:102C60000024016841F080010160016801F08001E9
:102C70000591016841F001010160016801F0010165
:102C80000591016841F0020101600068DFF8D08021
:102C900000F002000590012240F201114046FEF7CB
:102CA00016FC002230214046FEF711FCDFF8B490FC
:102CB00001225C214846FEF70AFC4FF484570022AB
:102CC00039464846FEF703FC312001250226CDE9AE
:102CD0000005CDE9024669464046FEF703FB5C204D
:102CE000CDE90005CDE9024669464846FEF7FAFA05
:102CF000A8027E02CDE90006694602944846FEF726
:102D0000F1FA0097CDE90154694648460394FEF76D
:102D1000E9FA4FF4C040CDE90006694602954846FD
:102D2000FEF7E0FA28020090CDE9015469464046DA
:102D30000394FEF7D7FA20208DE831006946484613
:102D4000FEF7D0FA002201212820FEF733FC2820CC
:102D5000FEF722FC07B0BDE8F083000030380240E7
:102D6000000002400004024010B586B0002416485E
:102D7000009401940294039404944FF080410594CC
:102D800001604721C0E901144FF6FF71C0E9031447
:102D90008461FEF737FF08B1FDF7B5FE4FF48050B0
:102DA000009069460848FEF7C8FF08B1FDF7ABFE82
:102DB000049404A904480594FEF7E6FE002801D017
:102DC000FDF7A1FE06B010BDD40A002010B58EB0EC
:102DD00000240794089409940A940B941C216846D3
:102DE0000C94FDF77DFB23482149016040F2CF217F
:102DF000C0E9011440F2CF71C0E903148021816160
:102E0000FEF700FF08B1FDF77EFE4FF480500790FB
:102E100007A91848FEF791FF08B1FDF774FE1548A1
:102E2000FFF721F908B1FDF76EFE0B940BA91148CD
:102E30000C94FEF7A9FE08B1FDF765FE6020CDE910
:102E400000040294002269460A480494FFF7A5F89A
:102E500008B1FDF758FE042269460648FFF79DF8C1
:102E600008B1FDF750FE0348FFF76EF80EB010BD35
:102E7000000400401C0B00200C4810B50A490160FA
:102E80004FF416514160002181600C22C160C0E9FD
:102E900004128161C161FFF7A9FA002803D0BDE8DF
:102EA0001040FDF730BE10BD00100140640B002043
:102EB0000C4810B50A4901604FF4E131416000212E
:102EC00081600C22C160C0E904128161C161FFF719
:102ED0008DFA002803D0BDE81040FDF714BE10BDE8
:102EE00000440040AC0B0020FEE7000070B50F4D21
:102EF0000F4E04000CD5012210212846FEF7E7FAF8
:102F0000002220212846FEF7E2FA3068446370BDB3
:102F1000002210212846FEF7DAFA01222021284655
:102F2000FEF7D5FA31686042486370BD0000024088
:102F30001C0B0020FEE7704770B52B20FFF700FD4B
:102F4000244C002160702920FFF7A8FD00210220F9
:102F5000FFF7A4FD6078204CC0064FF0110512D594
:102F6000B220FFF7EDFC21280DD1BF20FFF7E8FCD0
:102F7000352808D1BA20FFF7E3FC401E032802D809
:102F80001020207000E0257000212B20FFF786FD27
:102F900000211C20FFF782FD00212920FFF77EFD84
:102FA00000210220FFF77AFD00212B20FFF776FD9C
:102FB0000021BA20FFF772FD0021BC20FFF76EFD53
:102FC00001210820FFF76AFDBDE8704000210820BC
:102FD000FFF764BD000000200400002070B500244D
:102FE0004FEA0405FFF710FC0520FDF754FDFFF73D
:102FF00057FB40B10520FDF74EFDFFF7ADFB10B1CB
:103000000125284670BDFFF71BFD0520FDF743FD98
:10301000641CE4B2052CE5D3F3E7704770B51D4698
:1030200016460B46024621A12648049CFDF7A0F94E
:103030002448FFF721FBFF20FFF708FB21482B4620
:10304000324621A1C830FDF793F91E48C830FFF77A
:1030500013FBFF20FFF7FAFA1A48228820A132302A
:10306000FDF786F917483230FFF706FBFF20FFF720
:10307000EDFA144862881FA16430FDF779F9114810
:103080006430FFF7F9FAFF20FFF7E0FA0D48A28855
:103090001DA19630FDF76CF90A489630FFF7ECFA5F
:1030A000BDE87040FF20FFF7D1BA0000706167658E
:1030B000322E74342E7478743D2225642E256422B9
:1030C000000000003201002070616765322E743903
:1030D0002E7478743D2225642E25642200000000A1
:1030E00070616765322E74352E7478743D222564C4
:1030F0002200000070616765322E74362E74787479
:103100003D2225642200000070616765322E74370D
:103110002E7478743D22256422000000FEF7E2B987
:1031200030B593B030216846FDF7DAF914210CA8C8
:10313000FDF7D6F91C480025016841F08051016077
:10314000006800F0805011901848016841F4404137
:1031500001600068022400F44040119001200090BA
:10316000000401908001CDE90640192008909020CC
:10317000CDE9090404200B906846FEF739FB08B13D
:1031800072B6FEE70CA90F2081E831004FF48050A1
:10319000CDE90F0502210CA8FEF73EFA002801D068
:1031A00072B6FEE713B030BD4038024000700040F8
:1031B0000248016841F470010160704788ED00E049
:1031C0000148FEF729BE0000D40A0020F0B50268CD
:1031D000204B214C9F03214D214E984207D0B842ED
:1031E00005D0A04203D0A84201D0B04204D122F0C1
:1031F000700C4A6842EA0C02984210D0B8420ED0D5
:10320000A0420CD0A8420AD0B04208D0154CA0422F
:1032100005D0154CA04202D0144CA04203D122F498
:103220004074CA6822434C6922F080022243026043
:103230008A68C2620A688262984201D109690163A0
:10324000012141610169C90703D0016921F0010130
:103250000161F0BD00000140000400400008004092
:10326000000C004000400140004401400048014083
:1032700010B501F01F030121046A99408C430462D8
:10328000016A9A401143016210BD10B5846842EA98
:10329000032224F47F440A432243826010BD8268E3
:1032A00022F070020A4342F007018160704700007B
:1032B00030B5036A026A22F0010202624268846940
:1032C00024F073050C682C4323F002058B682B4314
:1032D0000A4DA8420BD123F00805CB6822F44072B6
:1032E0002B434D6923F0040315438A692A43426046
:1032F000846149684163036230BD00000000014001
:1033000030B5026A036A23F01003036243688469DC
:103310000D6824F4E64444EA05248D6822F0200276
:1033200042EA05120B4DA8420ED1CD6822F0800270
:1033300042EA05124D6923F4406343EA85038D692F
:1033400022F0400243EA8503436084614968816357
:10335000026230BD0000014030B5036A026A22F407
:10336000807202624268C46923F4007324F073051A
:103370000C682C438D6843EA05230C4DA8420ED1FE
:10338000CD6823F4006343EA05234D6922F44052DB
:1033900042EA05128D6923F4806342EA0512426015
:1033A000C4614968C163036230BD00000000014090
:1033B00030B5046A026A22F4805202624268C3692C
:1033C0000D6823F4E64343EA05238D6824F4005492
:1033D00044EA0534064DA84204D14D6922F48042E6
:1033E00042EA85124260C36149680164046230BDEB
:1033F0000000014010B5036A046A24F0010404626D
:10340000846924F0F00444EA021423F00A020A4317
:103410008461026210BD10B5036A046A24F01004CE
:103420000462846923F0A00324F4704444EA023265
:1034300043EA01118261016210BD10B5806B002169
:10344000C185C184FEF799FE10BD01680C3151E8B9
:10345000002F22F4907241E80023002BF5D101687F
:10346000143151E8002F22F0010241E80023002B23
:10347000F5D1016B012909D101680C3151E8002F08
:1034800022F0100241E80023002BF5D1202180F822
:10349000421000210163704708B590F842102229BC
:1034A00001D0022008BD82684FF480539A4201D1B6
:1034B000016921B1816A9A421BD04AB10AE00268CF
:1034C000816A5268C2F308020A80816A891C08E096
:1034D000026972B10268526802F07F020A70816A62
:1034E000491C8162C18D491E0904090CC18503D0A4
:1034F0001BE002685268F1E70168CA6822F0200206
:10350000CA600168CA6822F48072CA6001684A69A8
:1035100022F001024A61202180F84210002141631B
:10352000026B012A03D0FFF705F8002008BD0163F4
:1035300001680C3151E8002F22F0100241E800230D
:10354000002BF5D101680A68D20602D50A684968DD
:103550000091818DFEF710FEE7E7000070B504468C
:1035600000680169E26821F4405111430161216959
:10357000A068E26908436169114308432168CA6889
:1035800049F20C639A430243CA6020684169A26908
:1035900021F440711143416131492068884202D0D1
:1035A0003049884202D1FEF7E1F801E0FEF7CEF89B
:1035B000E2690023192164253226B2F5004F6268C2
:1035C00028D0A0FB0101930F9200FCF759FE0146A1
:1035D000B0FBF5F06FF01802504301EB800006EBF2
:1035E0000010B0FBF5F000F0F002B1FBF5F002EBDB
:1035F0000012B1FBF5F06FF01803584301EB8000A7
:1036000006EB0010B0FBF5F000F00F00216810444D
:10361000886070BDA0FB010192185B41FCF730FE91
:103620000146B0FBF5F00201B1FBF5F06FF01803B5
:10363000584301EB800006EBC000B0FBF5F000F052
:10364000F80002EB4002B1FBF5F0584301EB8000BB
:1036500006EBC000B0FBF5F000F00700D6E7000075
:10366000001001400014014081628285C285002162
:103670004164222180F84210016921B10168CA68C1
:1036800042F48072CA6001684A6942F001024A61EC
:103690000068C16841F02001C160002070472DE939
:1036A000F843984617460D460446089E24E0701CD1
:1036B00022D0FDF711FFA0EB0800B0421AD8CEB11E
:1036C0002068C168490717D5802D15D0402D13D02B
:1036D0000168C94309070FD40168002540680090BC
:1036E0002046FFF7B2FE0820606484F840500120B5
:1036F000BDE8F8830320FBE72068006835EA000096
:1037000004D00020B842D2D00020F1E70120F9E730
:103710000148FEF733BD0000640B00200148FEF7AE
:103720002DBD0000AC0B0020FEE7000010B52E4BB5
:103730002E4C4FF48071C0B1A07800284DD00020ED
:10374000A07001221846FDF7C2FE617828484FF6A6
:10375000FF7418293CD00DDC264807293DD2DFE84C
:1037600001F03C2426282A3032000120A0700022DB
:10377000184622E01C2933D007DC19292AD01A293F
:103780002CD01B2929D11CA104E01D292AD02429D1
:1037900023D11EA12148FCF7EBFD234682B2BDE8F0
:1037A00010401E491E48FEF7FFBE1EA1F2E723A1EE
:1037B000F0E7012200E000228021BDE81040FDF783
:1037C00086BE012000E00020BDE81040FFF78EBB60
:1037D000FA2100E032210068816310BD1DA1D9E704
:1037E0001DA1D7E722A1D5E7000002400400002078
:1037F0001C0B00200004024022CFF2D3D2D7AA2211
:10380000CAB6B1F0B3C9B9A60D0A000022BAF3CD09
:10381000CB22CAB6B1F0B3C9B9A600002800002077
:10382000640B002022B4FAC2EBB2E2CAD422CAB6B8
:10383000B1F0B3C9B9A60D0A0000000022B2E2CA75
:10384000D4CDEAB1CF22CAB6B1F0B3C9B9A60D0A38
:10385000000000003200000022B4F2BFAABFD5B5BC
:10386000F722CAB6B1F0B3C9B9A60D0A000000002C
:1038700022B9D8B1D5BFD5B5F722CAB6B1F0B3C910
:10388000B9A60D0A000000000907090E002804DB94
:1038900000F1E02080F80014704700F00F0000F104
:1038A000E02080F8141D704708B5FDF723FEFFF7F0
:1038B00037FCFFF7CDF9FFF7B5F9FFF787FAFFF708
:1038C000DBFAFFF767F9FFF74FFAFFF7F1FA032288
:1038D000AC49AD48FDF756FA0421AC48FEF7F2FBBF
:1038E0000021AA48FEF7EEFB0122A949A948FEF7EC
:1038F00013FE0122A849A948FEF70EFEFEF781FF3C
:10390000FFF79EF89F4C00260C3CDFF894B226701F
:10391000324640215846FDF7DAFD9D482379E2788A
:10392000A0A10A30FCF724FD99480A30FEF7A4FE56
:10393000FF20FEF78BFE934D0095A37962792179E4
:10394000E078FFF76BFB9DA19F48FCF711FD82B269
:103950004FF6FF7A53469C498E48FEF725FE00201D
:10396000FFF7C4FA894F4FF032083968C1F8388040
:103970004FF448796079642802D93968C1F83880F1
:103980002888484515D2A0B1012211035846FDF7F9
:103990009EFD8EA18C48FCF7EBFC82B253468A490F
:1039A0007C48FEF701FE00224FF480718848FDF745
:1039B0008EFD77482A8887A13C30FCF7D9FC7448F3
:1039C0003C30FEF759FEFF20FEF740FE70486A8843
:1039D00085A16E30FCF7CCFC6D486E30FEF74CFED6
:1039E000FF20FEF733FE6A48AA8884A1A030FCF7C6
:1039F000BFFC6748A030FEF73FFEFF20FEF726FE23
:103A0000FCF7D2FFFCF754FF012822D15D4B9B1F2E
:103A10005A1E511E481EFCF797FF5D482379E27835
:103A200060A10A30FCF7A4FC59480A30FEF724FED6
:103A3000FF20FEF70BFE5648A379627974A1D230BD
:103A4000FCF796FC5248D230FEF716FEFF20FEF738
:103A5000FDFD207830B1012812D010280AD031287D
:103A60000DD10DE001202070FFF7B8FA40B93120E8
:103A7000207005E0FEF7C2FE6070FFF757FE26706B
:103A8000A06800283FF476AF674800781A2810D065
:103A900008DC0A2819D00B2833D00C2848D00D2870
:103AA0006DD15FE01B2820D01C2835D01D2866D1A1
:103AB0004CE05EA14448FCF75BFC82B253464249AD
:103AC0003448FEF771FD01220AE05CA13E48FCF794
:103AD0004FFC82B253463C492E48FEF765FD00225A
:103AE00080215846FDF7F3FC49E058A13648FCF721
:103AF0003FFC82B2534634492648FEF755FD33A1B8
:103B000000E055A13048FCF733FC82B253462E4901
:103B10002048FEF749FD32E053A12B48FCF728FC72
:103B200082B2534628491B48FEF73EFDFA200AE0C0
:103B300051A12548FCF71CFC82B253462249154886
:103B4000FEF732FD40463968886318E04EA11E48F2
:103B5000FCF70EFC82B253461B490E48FEF724FDCB
:103B600001200AE04BA11848FCF702FC82B2534640
:103B700015490848FEF718FD0020FFF7B7F9A660C1
:103B8000F8E60000100000202C0A00201C0B00208A
:103B900028010020640B00202C060020AC0B002024
:103BA0000004024070616765322E74342E7478749C
:103BB0003D2225642E25642200000000D4CBD0D005
:103BC000B3CCD0F20D0A0000280000203200000023
:103BD0000000024070616765322E74352E7478746F
:103BE0003D2225642200000070616765322E743624
:103BF0002E7478743D222564220000007061676590
:103C0000322E74372E7478743D2225642200000011
:103C100070616765322E74392E7478743D22256484
:103C20002E256422000000002C0200206F70656EBB
:103C3000206C69676874730A0D000000636C6F7311
:103C400065206C69676874730A0D00006F70656E9B
:103C500020646F6F720A0D00636C6F736520646F70
:103C60006F720A0D000000006F70656E2077696E3C
:103C7000646F770A0D000000636C6F7365207769CD
:103C80006E646F770A0D00006F70656E2066616E5E
:103C90000A0D0000636C6F73652066616E0A0D008B
:103CA0004FF04070E1EE100A704700007869616FD4
:103CB00020616920746F6E672078756500000000D0
:103CC000646169206D61206365207368690000008C
:103CD000000000006365207368692077616E2062D0
:103CE00069000000000000006B61692064656E6778
:103CF0000000000000000000000000006775616E19
:103D00002064656E670000000000000000000000F5
:103D10006461206B61692066656E67207368616EFF
:103D2000000000006775616E2062692066656E673D
:103D3000207368616E0000006B61692063687561C3
:103D40006E67000000000000000000006775616EF3
:103D500020636875616E67000000000000000000CD
:103D60006B61692073756F000000000000000000A7
:103D7000000000007869616E6720796F75207A68AD
:103D800075616E00000000006461206B6169206B4A
:103D90006F6E67207469616F000000006775616E67
:103DA000206269206B6F6E67207469616F0000008C
:103DB000686F752074756900000000000000000045
:103DC000000000000006101600061016000000009B
:103DD00000000000010203040607080900000000BB
:103DE00001020304043E0008000000202800000037
:103DF000D40100082C3E00082800002030120000EA
:103E0000F0010008000000000000000000000000B9
:103E100000000000000000000000000001000000A1
:0C3E200010000000000000000024F4006E
:040000050800019955
:00000001FF
